{"contracts/DANKFairLaunch.sol":{"DANKFairLaunch":{"abi":[{"inputs":[{"internalType":"address","name":"_dankToken","type":"address"},{"internalType":"address","name":"_feeCollector","type":"address"}],"stateMutability":"nonpayable","type":"constructor"},{"inputs":[],"name":"AccessControlBadConfirmation","type":"error"},{"inputs":[{"internalType":"address","name":"account","type":"address"},{"internalType":"bytes32","name":"neededRole","type":"bytes32"}],"name":"AccessControlUnauthorizedAccount","type":"error"},{"inputs":[{"internalType":"string","name":"reason","type":"string"}],"name":"ClaimError","type":"error"},{"inputs":[],"name":"EnforcedPause","type":"error"},{"inputs":[],"name":"ExpectedPause","type":"error"},{"inputs":[{"internalType":"address","name":"provided","type":"address"}],"name":"InvalidAddress","type":"error"},{"inputs":[{"internalType":"uint256","name":"provided","type":"uint256"},{"internalType":"uint256","name":"required","type":"uint256"}],"name":"InvalidAmount","type":"error"},{"inputs":[{"internalType":"string","name":"reason","type":"string"}],"name":"InvalidState","type":"error"},{"inputs":[],"name":"ReentrancyGuardReentrantCall","type":"error"},{"inputs":[{"internalType":"string","name":"reason","type":"string"}],"name":"StakingError","type":"error"},{"inputs":[{"internalType":"string","name":"reason","type":"string"}],"name":"TransferFailed","type":"error"},{"inputs":[{"internalType":"address","name":"caller","type":"address"},{"internalType":"string","name":"reason","type":"string"}],"name":"Unauthorized","type":"error"},{"anonymous":false,"inputs":[{"indexed":true,"internalType":"address","name":"user","type":"address"},{"indexed":false,"internalType":"uint256","name":"amount","type":"uint256"},{"indexed":false,"internalType":"uint256","name":"timestamp","type":"uint256"}],"name":"EmergencyWithdraw","type":"event"},{"anonymous":false,"inputs":[{"indexed":false,"internalType":"address","name":"account","type":"address"}],"name":"Paused","type":"event"},{"anonymous":false,"inputs":[{"indexed":false,"internalType":"uint256","name":"startTime","type":"uint256"},{"indexed":false,"internalType":"uint256","name":"endTime","type":"uint256"},{"indexed":false,"internalType":"uint256","name":"timestamp","type":"uint256"}],"name":"PoolInitialized","type":"event"},{"anonymous":false,"inputs":[{"indexed":true,"internalType":"address","name":"admin","type":"address"},{"indexed":false,"internalType":"uint256","name":"timestamp","type":"uint256"}],"name":"PoolPaused","type":"event"},{"anonymous":false,"inputs":[{"indexed":true,"internalType":"address","name":"admin","type":"address"},{"indexed":false,"internalType":"uint256","name":"timestamp","type":"uint256"}],"name":"PoolUnpaused","type":"event"},{"anonymous":false,"inputs":[{"indexed":true,"internalType":"bytes32","name":"role","type":"bytes32"},{"indexed":true,"internalType":"bytes32","name":"previousAdminRole","type":"bytes32"},{"indexed":true,"internalType":"bytes32","name":"newAdminRole","type":"bytes32"}],"name":"RoleAdminChanged","type":"event"},{"anonymous":false,"inputs":[{"indexed":true,"internalType":"bytes32","name":"role","type":"bytes32"},{"indexed":true,"internalType":"address","name":"account","type":"address"},{"indexed":true,"internalType":"address","name":"sender","type":"address"}],"name":"RoleGranted","type":"event"},{"anonymous":false,"inputs":[{"indexed":true,"internalType":"bytes32","name":"role","type":"bytes32"},{"indexed":true,"internalType":"address","name":"account","type":"address"},{"indexed":true,"internalType":"address","name":"sender","type":"address"}],"name":"RoleRevoked","type":"event"},{"anonymous":false,"inputs":[{"indexed":true,"internalType":"address","name":"user","type":"address"},{"indexed":false,"internalType":"uint256","name":"amount","type":"uint256"},{"indexed":false,"internalType":"uint256","name":"timestamp","type":"uint256"}],"name":"Staked","type":"event"},{"anonymous":false,"inputs":[{"indexed":true,"internalType":"address","name":"token","type":"address"},{"indexed":false,"internalType":"uint256","name":"amount","type":"uint256"},{"indexed":false,"internalType":"uint256","name":"timestamp","type":"uint256"}],"name":"TokensRecovered","type":"event"},{"anonymous":false,"inputs":[{"indexed":false,"internalType":"address","name":"account","type":"address"}],"name":"Unpaused","type":"event"},{"anonymous":false,"inputs":[{"indexed":true,"internalType":"address","name":"user","type":"address"},{"indexed":false,"internalType":"uint256","name":"ethAmount","type":"uint256"},{"indexed":false,"internalType":"uint256","name":"dankAmount","type":"uint256"},{"indexed":false,"internalType":"uint256","name":"timestamp","type":"uint256"}],"name":"Withdrawn","type":"event"},{"inputs":[],"name":"ADMIN_ROLE","outputs":[{"internalType":"bytes32","name":"","type":"bytes32"}],"stateMutability":"view","type":"function"},{"inputs":[],"name":"DEFAULT_ADMIN_ROLE","outputs":[{"internalType":"bytes32","name":"","type":"bytes32"}],"stateMutability":"view","type":"function"},{"inputs":[],"name":"DURATION","outputs":[{"internalType":"uint256","name":"","type":"uint256"}],"stateMutability":"view","type":"function"},{"inputs":[],"name":"END_BUFFER","outputs":[{"internalType":"uint256","name":"","type":"uint256"}],"stateMutability":"view","type":"function"},{"inputs":[],"name":"FEE_PERCENTAGE","outputs":[{"internalType":"uint256","name":"","type":"uint256"}],"stateMutability":"view","type":"function"},{"inputs":[],"name":"MAX_ETH_PER_WALLET","outputs":[{"internalType":"uint256","name":"","type":"uint256"}],"stateMutability":"view","type":"function"},{"inputs":[],"name":"MIN_ALLOCATION","outputs":[{"internalType":"uint256","name":"","type":"uint256"}],"stateMutability":"view","type":"function"},{"inputs":[],"name":"MIN_ETH_STAKE","outputs":[{"internalType":"uint256","name":"","type":"uint256"}],"stateMutability":"view","type":"function"},{"inputs":[],"name":"PAUSER_ROLE","outputs":[{"internalType":"bytes32","name":"","type":"bytes32"}],"stateMutability":"view","type":"function"},{"inputs":[],"name":"STAKE_COOLDOWN","outputs":[{"internalType":"uint256","name":"","type":"uint256"}],"stateMutability":"view","type":"function"},{"inputs":[],"name":"TOTAL_REWARDS","outputs":[{"internalType":"uint256","name":"","type":"uint256"}],"stateMutability":"view","type":"function"},{"inputs":[{"internalType":"address","name":"user","type":"address"}],"name":"calculateTokenAllocation","outputs":[{"internalType":"uint256","name":"","type":"uint256"}],"stateMutability":"view","type":"function"},{"inputs":[],"name":"claimTokens","outputs":[],"stateMutability":"nonpayable","type":"function"},{"inputs":[],"name":"dankToken","outputs":[{"internalType":"contract IERC20","name":"","type":"address"}],"stateMutability":"view","type":"function"},{"inputs":[],"name":"emergencyWithdraw","outputs":[],"stateMutability":"nonpayable","type":"function"},{"inputs":[],"name":"endTime","outputs":[{"internalType":"uint256","name":"","type":"uint256"}],"stateMutability":"view","type":"function"},{"inputs":[],"name":"feeCollector","outputs":[{"internalType":"address","name":"","type":"address"}],"stateMutability":"view","type":"function"},{"inputs":[{"internalType":"address","name":"user","type":"address"}],"name":"getClaimableAmounts","outputs":[{"internalType":"uint256","name":"tokenAmount","type":"uint256"},{"internalType":"uint256","name":"ethAmount","type":"uint256"},{"internalType":"uint256","name":"feeAmount","type":"uint256"}],"stateMutability":"view","type":"function"},{"inputs":[{"internalType":"bytes32","name":"role","type":"bytes32"}],"name":"getRoleAdmin","outputs":[{"internalType":"bytes32","name":"","type":"bytes32"}],"stateMutability":"view","type":"function"},{"inputs":[{"internalType":"bytes32","name":"role","type":"bytes32"},{"internalType":"address","name":"account","type":"address"}],"name":"grantRole","outputs":[],"stateMutability":"nonpayable","type":"function"},{"inputs":[{"internalType":"address","name":"","type":"address"}],"name":"hasClaimed","outputs":[{"internalType":"bool","name":"","type":"bool"}],"stateMutability":"view","type":"function"},{"inputs":[{"internalType":"bytes32","name":"role","type":"bytes32"},{"internalType":"address","name":"account","type":"address"}],"name":"hasRole","outputs":[{"internalType":"bool","name":"","type":"bool"}],"stateMutability":"view","type":"function"},{"inputs":[{"internalType":"address","name":"","type":"address"}],"name":"hasStaked","outputs":[{"internalType":"bool","name":"","type":"bool"}],"stateMutability":"view","type":"function"},{"inputs":[],"name":"initializePool","outputs":[],"stateMutability":"nonpayable","type":"function"},{"inputs":[],"name":"initialized","outputs":[{"internalType":"bool","name":"","type":"bool"}],"stateMutability":"view","type":"function"},{"inputs":[{"internalType":"address","name":"","type":"address"}],"name":"lastStakeTime","outputs":[{"internalType":"uint256","name":"","type":"uint256"}],"stateMutability":"view","type":"function"},{"inputs":[],"name":"pause","outputs":[],"stateMutability":"nonpayable","type":"function"},{"inputs":[],"name":"paused","outputs":[{"internalType":"bool","name":"","type":"bool"}],"stateMutability":"view","type":"function"},{"inputs":[{"internalType":"address","name":"token","type":"address"},{"internalType":"uint256","name":"amount","type":"uint256"}],"name":"recoverTokens","outputs":[],"stateMutability":"nonpayable","type":"function"},{"inputs":[{"internalType":"bytes32","name":"role","type":"bytes32"},{"internalType":"address","name":"callerConfirmation","type":"address"}],"name":"renounceRole","outputs":[],"stateMutability":"nonpayable","type":"function"},{"inputs":[{"internalType":"bytes32","name":"role","type":"bytes32"},{"internalType":"address","name":"account","type":"address"}],"name":"revokeRole","outputs":[],"stateMutability":"nonpayable","type":"function"},{"inputs":[],"name":"stake","outputs":[],"stateMutability":"payable","type":"function"},{"inputs":[],"name":"startTime","outputs":[{"internalType":"uint256","name":"","type":"uint256"}],"stateMutability":"view","type":"function"},{"inputs":[{"internalType":"bytes4","name":"interfaceId","type":"bytes4"}],"name":"supportsInterface","outputs":[{"internalType":"bool","name":"","type":"bool"}],"stateMutability":"view","type":"function"},{"inputs":[],"name":"totalETHStaked","outputs":[{"internalType":"uint256","name":"","type":"uint256"}],"stateMutability":"view","type":"function"},{"inputs":[],"name":"unpause","outputs":[],"stateMutability":"nonpayable","type":"function"},{"inputs":[{"internalType":"address","name":"","type":"address"}],"name":"userStakes","outputs":[{"internalType":"uint256","name":"","type":"uint256"}],"stateMutability":"view","type":"function"}],"evm":{"bytecode":{"linkReferences":{},"object":"60c060405234801561001057600080fd5b50604051611e4c380380611e4c83398101604081905261002f916101d1565b60016000556002805460ff191690556001600160a01b03821661007557604051634726455360e11b81526001600160a01b03831660048201526024015b60405180910390fd5b6001600160a01b0381166100a757604051634726455360e11b81526001600160a01b038216600482015260240161006c565b6100b2600033610120565b506100dd7fa49807205ce4d355092ef5a8a18f56e8913cf4a201fbe287825b095693c2177533610120565b506101087f65d7a28e3265b37a6474929f336521b332c1681b933f6cb9f3376673440d862a33610120565b506001600160a01b039182166080521660a052610204565b60008281526001602090815260408083206001600160a01b038516845290915281205460ff166101ab5760008381526001602081815260408084206001600160a01b0387168086529252808420805460ff19169093179092559051339286917f2f8788117e7eff1d82e926ec794901d17c78024a50270940304540a733656f0d9190a45060016101af565b5060005b92915050565b80516001600160a01b03811681146101cc57600080fd5b919050565b600080604083850312156101e457600080fd5b6101ed836101b5565b91506101fb602084016101b5565b90509250929050565b60805160a051611c0061024c6000396000818161059a01526110fc01526000818161067101528181610755015281816109a50152818161100f015261125b0152611c006000f3fe6080604052600436106102195760003560e01c806373b2e80e1161012357806391d14854116100ab578063d62a853a1161006f578063d62a853a14610624578063d6e903f41461065f578063db2e21bc14610693578063e5486bda146106a8578063e63ab1e9146106be57600080fd5b806391d1485414610553578063a217fddf14610573578063c415b95c14610588578063c93c8f34146105d4578063d547741f1461060457600080fd5b80637ee75ca0116100f25780637ee75ca0146104ca5780638456cb59146104e057806387ac67c1146104f55780638da7ad2314610510578063919b000b1461053d57600080fd5b806373b2e80e1461042357806375b238fc1461045357806378e97925146104875780637bb1ca191461049d57600080fd5b80632f2ff15d116101a65780633a4b66f1116101755780633a4b66f1146103c35780633f4ba83a146103cb57806348c54b9d146103e05780635c975abb146103f557806361bc37f51461040d57600080fd5b80632f2ff15d1461034d5780633197cbb61461036d57806336568abe1461038357806336febc03146103a357600080fd5b8063158ef93e116101ed578063158ef93e146102ba5780631be05289146102d4578063248a9ca3146102eb578063250e6de01461031c57806329db87e71461033157600080fd5b80620b46f81461021e57806301ffc9a714610247578063069c9fae1461027757806309cf609114610299575b600080fd5b34801561022a57600080fd5b506102346101f481565b6040519081526020015b60405180910390f35b34801561025357600080fd5b50610267610262366004611a27565b6106f2565b604051901515815260200161023e565b34801561028357600080fd5b50610297610292366004611a74565b610729565b005b3480156102a557600080fd5b506102346c0153d4a729495daf1a2480000081565b3480156102c657600080fd5b506006546102679060ff1681565b3480156102e057600080fd5b506102346201518081565b3480156102f757600080fd5b50610234610306366004611a9e565b6000908152600160208190526040909120015490565b34801561032857600080fd5b5061029761090d565b34801561033d57600080fd5b506102346706f05b59d3b2000081565b34801561035957600080fd5b50610297610368366004611ab7565b610ad3565b34801561037957600080fd5b5061023460045481565b34801561038f57600080fd5b5061029761039e366004611ab7565b610aff565b3480156103af57600080fd5b506102346103be366004611ae3565b610b37565b610297610c4b565b3480156103d757600080fd5b50610297610eba565b3480156103ec57600080fd5b50610297610f25565b34801561040157600080fd5b5060025460ff16610267565b34801561041957600080fd5b5061023460055481565b34801561042f57600080fd5b5061026761043e366004611ae3565b60096020526000908152604090205460ff1681565b34801561045f57600080fd5b506102347fa49807205ce4d355092ef5a8a18f56e8913cf4a201fbe287825b095693c2177581565b34801561049357600080fd5b5061023460035481565b3480156104a957600080fd5b506102346104b8366004611ae3565b600a6020526000908152604090205481565b3480156104d657600080fd5b50610234610e1081565b3480156104ec57600080fd5b50610297611367565b34801561050157600080fd5b50610234662386f26fc1000081565b34801561051c57600080fd5b5061023461052b366004611ae3565b60076020526000908152604090205481565b34801561054957600080fd5b5061023461012c81565b34801561055f57600080fd5b5061026761056e366004611ab7565b6113cb565b34801561057f57600080fd5b50610234600081565b34801561059457600080fd5b506105bc7f000000000000000000000000000000000000000000000000000000000000000081565b6040516001600160a01b03909116815260200161023e565b3480156105e057600080fd5b506102676105ef366004611ae3565b60086020526000908152604090205460ff1681565b34801561061057600080fd5b5061029761061f366004611ab7565b6113f6565b34801561063057600080fd5b5061064461063f366004611ae3565b61141c565b6040805193845260208401929092529082015260600161023e565b34801561066b57600080fd5b506105bc7f000000000000000000000000000000000000000000000000000000000000000081565b34801561069f57600080fd5b506102976114bd565b3480156106b457600080fd5b506102346103e881565b3480156106ca57600080fd5b506102347f65d7a28e3265b37a6474929f336521b332c1681b933f6cb9f3376673440d862a81565b60006001600160e01b03198216637965db0b60e01b148061072357506301ffc9a760e01b6001600160e01b03198316145b92915050565b7fa49807205ce4d355092ef5a8a18f56e8913cf4a201fbe287825b095693c217756107538161166e565b7f00000000000000000000000000000000000000000000000000000000000000006001600160a01b0316836001600160a01b03161480156107a3575060045461079f9062278d00611b14565b4211155b1561080f57604051631186d0b760e31b815260206004820152603060248201527f43616e6e6f742077697468647261772044414e4b20746f6b656e73206475726960448201526f1b99c81858dd1a5d99481c195c9a5bd960821b60648201526084015b60405180910390fd5b60405163a9059cbb60e01b8152336004820152602481018390526001600160a01b0384169063a9059cbb906044016020604051808303816000875af115801561085c573d6000803e3d6000fd5b505050506040513d601f19601f820116820180604052508101906108809190611b27565b6108c5576040516312dfddb360e01b8152602060048201526015602482015274151bdad95b881c9958dbdd995c9e4819985a5b1959605a1b6044820152606401610806565b604080518381524260208201526001600160a01b038516917f1b47a558841d5932eac8d9b54d715979f08192e29aa6f5acefdfbedd4286fbe7910160405180910390a2505050565b7fa49807205ce4d355092ef5a8a18f56e8913cf4a201fbe287825b095693c217756109378161166e565b60065460ff161561098157604051631186d0b760e31b8152602060048201526013602482015272105b1c9958591e481a5b9a5d1a585b1a5e9959606a1b6044820152606401610806565b6040516370a0823160e01b81523060048201526c0153d4a729495daf1a24800000907f00000000000000000000000000000000000000000000000000000000000000006001600160a01b0316906370a0823190602401602060405180830381865afa1580156109f4573d6000803e3d6000fd5b505050506040513d601f19601f82011682018060405250810190610a189190611b49565b1015610a5d57604051631186d0b760e31b8152602060048201526013602482015272496e73756666696369656e7420746f6b656e7360681b6044820152606401610806565b426003819055610a71906201518090611b14565b60048190556006805460ff191660011790556003546040517f2432ac7d1a69edf7a84a587b57cbfba673d3513d85558394c1c81d327923a68992610ac8929142909283526020830191909152604082015260600190565b60405180910390a150565b60008281526001602081905260409091200154610aef8161166e565b610af9838361167b565b50505050565b6001600160a01b0381163314610b285760405163334bd91960e11b815260040160405180910390fd5b610b3282826116f4565b505050565b600060055460001480610b6057506001600160a01b038216600090815260076020526040902054155b15610b6d57506000919050565b6005546001600160a01b038316600090815260076020526040812054909190610bab670de0b6b3a76400006c0153d4a729495daf1a24800000611b62565b610bb59190611b62565b610bbf9190611b8f565b90506000610bd5670de0b6b3a764000083611b8f565b90506000610beb670de0b6b3a764000084611ba3565b90508015610c30576005546001600160a01b038616600090815260076020526040902054610c199083611b62565b610c239190611b8f565b610c2d9083611b14565b91505b6103e88210610c3f5781610c42565b60005b95945050505050565b610c53611761565b610c5b61178b565b60065460ff16610ca557604051631186d0b760e31b8152602060048201526014602482015273141bdbdb081b9bdd081a5b9a5d1a585b1a5e995960621b6044820152606401610806565b600354421015610ce657604051631186d0b760e31b815260206004820152600b60248201526a139bdd081cdd185c9d195960aa1b6044820152606401610806565b61012c600454610cf69190611bb7565b421115610d3957604051631186d0b760e31b815260206004820152601060248201526f151bdbc818db1bdcd9481d1bc8195b9960821b6044820152606401610806565b662386f26fc10000341015610d70576040516307c83fcf60e41b8152346004820152662386f26fc100006024820152604401610806565b336000908152600a6020526040902054610d8d90610e1090611b14565b421015610dcf57604051634565dab160e11b815260206004820152600f60248201526e436f6f6c646f776e2061637469766560881b6044820152606401610806565b33600090815260076020526040812054610dea903490611b14565b90506706f05b59d3b20000811115610e26576040516307c83fcf60e41b8152600481018290526706f05b59d3b200006024820152604401610806565b33600090815260076020526040812082905560058054349290610e4a908490611b14565b9091555050336000818152600860209081526040808320805460ff19166001179055600a82529182902042908190558251348152918201527f1449c6dd7851abc30abf37f57715f492010519147cc2652fbc38202c18a6ee90910160405180910390a250610eb86001600055565b565b7f65d7a28e3265b37a6474929f336521b332c1681b933f6cb9f3376673440d862a610ee48161166e565b610eec6117af565b60405142815233907f7218b4a8a456456c2cf5dbcd9202a02880a891c6f9dfafd90e7be5531523a031906020015b60405180910390a250565b610f2d611761565b6004544211610f7f57604051631186d0b760e31b815260206004820152601860248201527f46616972206c61756e6368207374696c6c2061637469766500000000000000006044820152606401610806565b610f8833611801565b6000610f9333610b37565b90506103e8811015610fdf57604051633fbb0b0160e01b8152602060048201526014602482015273105b1b1bd8d85d1a5bdb881d1bdbc81cdb585b1b60621b6044820152606401610806565b33600090815260076020526040908190205490516370a0823160e01b815230600482015282906001600160a01b037f000000000000000000000000000000000000000000000000000000000000000016906370a0823190602401602060405180830381865afa158015611056573d6000803e3d6000fd5b505050506040513d601f19601f8201168201806040525081019061107a9190611b49565b10156110bf57604051633fbb0b0160e01b8152602060048201526013602482015272496e73756666696369656e7420746f6b656e7360681b6044820152606401610806565b336000908152600960205260408120805460ff191660011790556110e8826101f4612710611912565b905060006110f68284611bb7565b905060007f00000000000000000000000000000000000000000000000000000000000000006001600160a01b03168360405160006040518083038185875af1925050503d8060008114611165576040519150601f19603f3d011682016040523d82523d6000602084013e61116a565b606091505b50509050806111b2576040516312dfddb360e01b8152602060048201526013602482015272119959481d1c985b9cd9995c8819985a5b1959606a1b6044820152606401610806565b604051600090339084908381818185875af1925050503d80600081146111f4576040519150601f19603f3d011682016040523d82523d6000602084013e6111f9565b606091505b505090508061123f576040516312dfddb360e01b8152602060048201526011602482015270115512081c995d1d5c9b8819985a5b1959607a1b6044820152606401610806565b60405163a9059cbb60e01b8152336004820152602481018790527f00000000000000000000000000000000000000000000000000000000000000006001600160a01b03169063a9059cbb906044016020604051808303816000875af11580156112ac573d6000803e3d6000fd5b505050506040513d601f19601f820116820180604052508101906112d09190611b27565b611315576040516312dfddb360e01b8152602060048201526015602482015274151bdad95b881d1c985b9cd9995c8819985a5b1959605a1b6044820152606401610806565b60408051848152602081018890524281830152905133917f75e161b3e824b114fc1a33274bd7091918dd4e639cede50b78b15a4eea956a21919081900360600190a2505050505050610eb86001600055565b7f65d7a28e3265b37a6474929f336521b332c1681b933f6cb9f3376673440d862a6113918161166e565b61139961198a565b60405142815233907fdeccd871bd16197ce3d021a73302372354d5cd2b5c3f57065638c772bf5a7c2890602001610f1a565b60009182526001602090815260408084206001600160a01b0393909316845291905290205460ff1690565b600082815260016020819052604090912001546114128161166e565b610af983836116f4565b6001600160a01b0381166000908152600860205260408120548190819060ff16158061146057506001600160a01b03841660009081526009602052604090205460ff165b15611473575060009150819050806114b6565b6001600160a01b03841660009081526007602052604090205461149b816101f4612710611912565b91506114a78282611bb7565b92506114b285610b37565b9350505b9193909250565b6114c5611761565b60025460ff1661151857604051631186d0b760e31b815260206004820152601760248201527f436f6e7472616374206d757374206265207061757365640000000000000000006044820152606401610806565b61152133611801565b336000908152600760205260409020544781111561158257604051631186d0b760e31b815260206004820152601d60248201527f496e73756666696369656e7420636f6e74726163742062616c616e63650000006044820152606401610806565b33600081815260096020526040808220805460ff191660011790555190919083908381818185875af1925050503d80600081146115db576040519150601f19603f3d011682016040523d82523d6000602084013e6115e0565b606091505b5050905080611628576040516312dfddb360e01b8152602060048201526013602482015272115512081d1c985b9cd9995c8819985a5b1959606a1b6044820152606401610806565b6040805183815242602082015233917fbb757047c2b5f3974fe26b7c10f732e7bce710b0952a71082702781e62ae0595910160405180910390a25050610eb86001600055565b61167881336119c7565b50565b600061168783836113cb565b6116ec5760008381526001602081815260408084206001600160a01b0387168086529252808420805460ff19169093179092559051339286917f2f8788117e7eff1d82e926ec794901d17c78024a50270940304540a733656f0d9190a4506001610723565b506000610723565b600061170083836113cb565b156116ec5760008381526001602090815260408083206001600160a01b0386168085529252808320805460ff1916905551339286917ff6391f5c32d9c69d2a47ea670b442974b53935d1edc7fd64eb21e047a839171b9190a4506001610723565b60026000540361178457604051633ee5aeb560e01b815260040160405180910390fd5b6002600055565b60025460ff1615610eb85760405163d93c066560e01b815260040160405180910390fd5b6117b7611a04565b6002805460ff191690557f5db9ee0a495bf2e6ff9c91a7834c1ba4fdd244a5e8aa4e537bd38aeae4b073aa335b6040516001600160a01b03909116815260200160405180910390a1565b6001600160a01b03811660009081526008602052604090205460ff1661185b57604051634565dab160e11b815260206004820152600e60248201526d139bc81cdd185ad948199bdd5b9960921b6044820152606401610806565b6001600160a01b03811660009081526009602052604090205460ff16156118b757604051633fbb0b0160e01b815260206004820152600f60248201526e105b1c9958591e4818db185a5b5959608a1b6044820152606401610806565b6001600160a01b038116600090815260076020526040812054900361167857604051634565dab160e11b815260206004820152601060248201526f4e6f7468696e6720746f20636c61696d60801b6044820152606401610806565b60008160000361193f576040516307c83fcf60e41b81526004810183905260016024820152604401610806565b6000611953670de0b6b3a764000086611b62565b90506000836119628684611b62565b61196c9190611b8f565b9050611980670de0b6b3a764000082611b8f565b9695505050505050565b61199261178b565b6002805460ff191660011790557f62e78cea01bee320cd4e420270b5ea74000d11b0c9f74754ebdbfc544b05a2586117e43390565b6119d182826113cb565b611a005760405163e2517d3f60e01b81526001600160a01b038216600482015260248101839052604401610806565b5050565b60025460ff16610eb857604051638dfc202b60e01b815260040160405180910390fd5b600060208284031215611a3957600080fd5b81356001600160e01b031981168114611a5157600080fd5b9392505050565b80356001600160a01b0381168114611a6f57600080fd5b919050565b60008060408385031215611a8757600080fd5b611a9083611a58565b946020939093013593505050565b600060208284031215611ab057600080fd5b5035919050565b60008060408385031215611aca57600080fd5b82359150611ada60208401611a58565b90509250929050565b600060208284031215611af557600080fd5b611a5182611a58565b634e487b7160e01b600052601160045260246000fd5b8082018082111561072357610723611afe565b600060208284031215611b3957600080fd5b81518015158114611a5157600080fd5b600060208284031215611b5b57600080fd5b5051919050565b808202811582820484141761072357610723611afe565b634e487b7160e01b600052601260045260246000fd5b600082611b9e57611b9e611b79565b500490565b600082611bb257611bb2611b79565b500690565b8181038181111561072357610723611afe56fea2646970667358221220ed3a7c4348d007e265954709303c147633d646fcc5fb4b92995d7fbc026d0b3d64736f6c634300081b0033","opcodes":"PUSH1 0xC0 PUSH1 0x40 MSTORE CALLVALUE DUP1 ISZERO PUSH2 0x10 JUMPI PUSH1 0x0 DUP1 REVERT JUMPDEST POP PUSH1 0x40 MLOAD PUSH2 0x1E4C CODESIZE SUB DUP1 PUSH2 0x1E4C DUP4 CODECOPY DUP2 ADD PUSH1 0x40 DUP2 SWAP1 MSTORE PUSH2 0x2F SWAP2 PUSH2 0x1D1 JUMP JUMPDEST PUSH1 0x1 PUSH1 0x0 SSTORE PUSH1 0x2 DUP1 SLOAD PUSH1 0xFF NOT AND SWAP1 SSTORE PUSH1 0x1 PUSH1 0x1 PUSH1 0xA0 SHL SUB DUP3 AND PUSH2 0x75 JUMPI PUSH1 0x40 MLOAD PUSH4 0x47264553 PUSH1 0xE1 SHL DUP2 MSTORE PUSH1 0x1 PUSH1 0x1 PUSH1 0xA0 SHL SUB DUP4 AND PUSH1 0x4 DUP3 ADD MSTORE PUSH1 0x24 ADD JUMPDEST PUSH1 0x40 MLOAD DUP1 SWAP2 SUB SWAP1 REVERT JUMPDEST PUSH1 0x1 PUSH1 0x1 PUSH1 0xA0 SHL SUB DUP2 AND PUSH2 0xA7 JUMPI PUSH1 0x40 MLOAD PUSH4 0x47264553 PUSH1 0xE1 SHL DUP2 MSTORE PUSH1 0x1 PUSH1 0x1 PUSH1 0xA0 SHL SUB DUP3 AND PUSH1 0x4 DUP3 ADD MSTORE PUSH1 0x24 ADD PUSH2 0x6C JUMP JUMPDEST PUSH2 0xB2 PUSH1 0x0 CALLER PUSH2 0x120 JUMP JUMPDEST POP PUSH2 0xDD PUSH32 0xA49807205CE4D355092EF5A8A18F56E8913CF4A201FBE287825B095693C21775 CALLER PUSH2 0x120 JUMP JUMPDEST POP PUSH2 0x108 PUSH32 0x65D7A28E3265B37A6474929F336521B332C1681B933F6CB9F3376673440D862A CALLER PUSH2 0x120 JUMP JUMPDEST POP PUSH1 0x1 PUSH1 0x1 PUSH1 0xA0 SHL SUB SWAP2 DUP3 AND PUSH1 0x80 MSTORE AND PUSH1 0xA0 MSTORE PUSH2 0x204 JUMP JUMPDEST PUSH1 0x0 DUP3 DUP2 MSTORE PUSH1 0x1 PUSH1 0x20 SWAP1 DUP2 MSTORE PUSH1 0x40 DUP1 DUP4 KECCAK256 PUSH1 0x1 PUSH1 0x1 PUSH1 0xA0 SHL SUB DUP6 AND DUP5 MSTORE SWAP1 SWAP2 MSTORE DUP2 KECCAK256 SLOAD PUSH1 0xFF AND PUSH2 0x1AB JUMPI PUSH1 0x0 DUP4 DUP2 MSTORE PUSH1 0x1 PUSH1 0x20 DUP2 DUP2 MSTORE PUSH1 0x40 DUP1 DUP5 KECCAK256 PUSH1 0x1 PUSH1 0x1 PUSH1 0xA0 SHL SUB DUP8 AND DUP1 DUP7 MSTORE SWAP3 MSTORE DUP1 DUP5 KECCAK256 DUP1 SLOAD PUSH1 0xFF NOT AND SWAP1 SWAP4 OR SWAP1 SWAP3 SSTORE SWAP1 MLOAD CALLER SWAP3 DUP7 SWAP2 PUSH32 0x2F8788117E7EFF1D82E926EC794901D17C78024A50270940304540A733656F0D SWAP2 SWAP1 LOG4 POP PUSH1 0x1 PUSH2 0x1AF JUMP JUMPDEST POP PUSH1 0x0 JUMPDEST SWAP3 SWAP2 POP POP JUMP JUMPDEST DUP1 MLOAD PUSH1 0x1 PUSH1 0x1 PUSH1 0xA0 SHL SUB DUP2 AND DUP2 EQ PUSH2 0x1CC JUMPI PUSH1 0x0 DUP1 REVERT JUMPDEST SWAP2 SWAP1 POP JUMP JUMPDEST PUSH1 0x0 DUP1 PUSH1 0x40 DUP4 DUP6 SUB SLT ISZERO PUSH2 0x1E4 JUMPI PUSH1 0x0 DUP1 REVERT JUMPDEST PUSH2 0x1ED DUP4 PUSH2 0x1B5 JUMP JUMPDEST SWAP2 POP PUSH2 0x1FB PUSH1 0x20 DUP5 ADD PUSH2 0x1B5 JUMP JUMPDEST SWAP1 POP SWAP3 POP SWAP3 SWAP1 POP JUMP JUMPDEST PUSH1 0x80 MLOAD PUSH1 0xA0 MLOAD PUSH2 0x1C00 PUSH2 0x24C PUSH1 0x0 CODECOPY PUSH1 0x0 DUP2 DUP2 PUSH2 0x59A ADD MSTORE PUSH2 0x10FC ADD MSTORE PUSH1 0x0 DUP2 DUP2 PUSH2 0x671 ADD MSTORE DUP2 DUP2 PUSH2 0x755 ADD MSTORE DUP2 DUP2 PUSH2 0x9A5 ADD MSTORE DUP2 DUP2 PUSH2 0x100F ADD MSTORE PUSH2 0x125B ADD MSTORE PUSH2 0x1C00 PUSH1 0x0 RETURN INVALID PUSH1 0x80 PUSH1 0x40 MSTORE PUSH1 0x4 CALLDATASIZE LT PUSH2 0x219 JUMPI PUSH1 0x0 CALLDATALOAD PUSH1 0xE0 SHR DUP1 PUSH4 0x73B2E80E GT PUSH2 0x123 JUMPI DUP1 PUSH4 0x91D14854 GT PUSH2 0xAB JUMPI DUP1 PUSH4 0xD62A853A GT PUSH2 0x6F JUMPI DUP1 PUSH4 0xD62A853A EQ PUSH2 0x624 JUMPI DUP1 PUSH4 0xD6E903F4 EQ PUSH2 0x65F JUMPI DUP1 PUSH4 0xDB2E21BC EQ PUSH2 0x693 JUMPI DUP1 PUSH4 0xE5486BDA EQ PUSH2 0x6A8 JUMPI DUP1 PUSH4 0xE63AB1E9 EQ PUSH2 0x6BE JUMPI PUSH1 0x0 DUP1 REVERT JUMPDEST DUP1 PUSH4 0x91D14854 EQ PUSH2 0x553 JUMPI DUP1 PUSH4 0xA217FDDF EQ PUSH2 0x573 JUMPI DUP1 PUSH4 0xC415B95C EQ PUSH2 0x588 JUMPI DUP1 PUSH4 0xC93C8F34 EQ PUSH2 0x5D4 JUMPI DUP1 PUSH4 0xD547741F EQ PUSH2 0x604 JUMPI PUSH1 0x0 DUP1 REVERT JUMPDEST DUP1 PUSH4 0x7EE75CA0 GT PUSH2 0xF2 JUMPI DUP1 PUSH4 0x7EE75CA0 EQ PUSH2 0x4CA JUMPI DUP1 PUSH4 0x8456CB59 EQ PUSH2 0x4E0 JUMPI DUP1 PUSH4 0x87AC67C1 EQ PUSH2 0x4F5 JUMPI DUP1 PUSH4 0x8DA7AD23 EQ PUSH2 0x510 JUMPI DUP1 PUSH4 0x919B000B EQ PUSH2 0x53D JUMPI PUSH1 0x0 DUP1 REVERT JUMPDEST DUP1 PUSH4 0x73B2E80E EQ PUSH2 0x423 JUMPI DUP1 PUSH4 0x75B238FC EQ PUSH2 0x453 JUMPI DUP1 PUSH4 0x78E97925 EQ PUSH2 0x487 JUMPI DUP1 PUSH4 0x7BB1CA19 EQ PUSH2 0x49D JUMPI PUSH1 0x0 DUP1 REVERT JUMPDEST DUP1 PUSH4 0x2F2FF15D GT PUSH2 0x1A6 JUMPI DUP1 PUSH4 0x3A4B66F1 GT PUSH2 0x175 JUMPI DUP1 PUSH4 0x3A4B66F1 EQ PUSH2 0x3C3 JUMPI DUP1 PUSH4 0x3F4BA83A EQ PUSH2 0x3CB JUMPI DUP1 PUSH4 0x48C54B9D EQ PUSH2 0x3E0 JUMPI DUP1 PUSH4 0x5C975ABB EQ PUSH2 0x3F5 JUMPI DUP1 PUSH4 0x61BC37F5 EQ PUSH2 0x40D JUMPI PUSH1 0x0 DUP1 REVERT JUMPDEST DUP1 PUSH4 0x2F2FF15D EQ PUSH2 0x34D JUMPI DUP1 PUSH4 0x3197CBB6 EQ PUSH2 0x36D JUMPI DUP1 PUSH4 0x36568ABE EQ PUSH2 0x383 JUMPI DUP1 PUSH4 0x36FEBC03 EQ PUSH2 0x3A3 JUMPI PUSH1 0x0 DUP1 REVERT JUMPDEST DUP1 PUSH4 0x158EF93E GT PUSH2 0x1ED JUMPI DUP1 PUSH4 0x158EF93E EQ PUSH2 0x2BA JUMPI DUP1 PUSH4 0x1BE05289 EQ PUSH2 0x2D4 JUMPI DUP1 PUSH4 0x248A9CA3 EQ PUSH2 0x2EB JUMPI DUP1 PUSH4 0x250E6DE0 EQ PUSH2 0x31C JUMPI DUP1 PUSH4 0x29DB87E7 EQ PUSH2 0x331 JUMPI PUSH1 0x0 DUP1 REVERT JUMPDEST DUP1 PUSH3 0xB46F8 EQ PUSH2 0x21E JUMPI DUP1 PUSH4 0x1FFC9A7 EQ PUSH2 0x247 JUMPI DUP1 PUSH4 0x69C9FAE EQ PUSH2 0x277 JUMPI DUP1 PUSH4 0x9CF6091 EQ PUSH2 0x299 JUMPI JUMPDEST PUSH1 0x0 DUP1 REVERT JUMPDEST CALLVALUE DUP1 ISZERO PUSH2 0x22A JUMPI PUSH1 0x0 DUP1 REVERT JUMPDEST POP PUSH2 0x234 PUSH2 0x1F4 DUP2 JUMP JUMPDEST PUSH1 0x40 MLOAD SWAP1 DUP2 MSTORE PUSH1 0x20 ADD JUMPDEST PUSH1 0x40 MLOAD DUP1 SWAP2 SUB SWAP1 RETURN JUMPDEST CALLVALUE DUP1 ISZERO PUSH2 0x253 JUMPI PUSH1 0x0 DUP1 REVERT JUMPDEST POP PUSH2 0x267 PUSH2 0x262 CALLDATASIZE PUSH1 0x4 PUSH2 0x1A27 JUMP JUMPDEST PUSH2 0x6F2 JUMP JUMPDEST PUSH1 0x40 MLOAD SWAP1 ISZERO ISZERO DUP2 MSTORE PUSH1 0x20 ADD PUSH2 0x23E JUMP JUMPDEST CALLVALUE DUP1 ISZERO PUSH2 0x283 JUMPI PUSH1 0x0 DUP1 REVERT JUMPDEST POP PUSH2 0x297 PUSH2 0x292 CALLDATASIZE PUSH1 0x4 PUSH2 0x1A74 JUMP JUMPDEST PUSH2 0x729 JUMP JUMPDEST STOP JUMPDEST CALLVALUE DUP1 ISZERO PUSH2 0x2A5 JUMPI PUSH1 0x0 DUP1 REVERT JUMPDEST POP PUSH2 0x234 PUSH13 0x153D4A729495DAF1A24800000 DUP2 JUMP JUMPDEST CALLVALUE DUP1 ISZERO PUSH2 0x2C6 JUMPI PUSH1 0x0 DUP1 REVERT JUMPDEST POP PUSH1 0x6 SLOAD PUSH2 0x267 SWAP1 PUSH1 0xFF AND DUP2 JUMP JUMPDEST CALLVALUE DUP1 ISZERO PUSH2 0x2E0 JUMPI PUSH1 0x0 DUP1 REVERT JUMPDEST POP PUSH2 0x234 PUSH3 0x15180 DUP2 JUMP JUMPDEST CALLVALUE DUP1 ISZERO PUSH2 0x2F7 JUMPI PUSH1 0x0 DUP1 REVERT JUMPDEST POP PUSH2 0x234 PUSH2 0x306 CALLDATASIZE PUSH1 0x4 PUSH2 0x1A9E JUMP JUMPDEST PUSH1 0x0 SWAP1 DUP2 MSTORE PUSH1 0x1 PUSH1 0x20 DUP2 SWAP1 MSTORE PUSH1 0x40 SWAP1 SWAP2 KECCAK256 ADD SLOAD SWAP1 JUMP JUMPDEST CALLVALUE DUP1 ISZERO PUSH2 0x328 JUMPI PUSH1 0x0 DUP1 REVERT JUMPDEST POP PUSH2 0x297 PUSH2 0x90D JUMP JUMPDEST CALLVALUE DUP1 ISZERO PUSH2 0x33D JUMPI PUSH1 0x0 DUP1 REVERT JUMPDEST POP PUSH2 0x234 PUSH8 0x6F05B59D3B20000 DUP2 JUMP JUMPDEST CALLVALUE DUP1 ISZERO PUSH2 0x359 JUMPI PUSH1 0x0 DUP1 REVERT JUMPDEST POP PUSH2 0x297 PUSH2 0x368 CALLDATASIZE PUSH1 0x4 PUSH2 0x1AB7 JUMP JUMPDEST PUSH2 0xAD3 JUMP JUMPDEST CALLVALUE DUP1 ISZERO PUSH2 0x379 JUMPI PUSH1 0x0 DUP1 REVERT JUMPDEST POP PUSH2 0x234 PUSH1 0x4 SLOAD DUP2 JUMP JUMPDEST CALLVALUE DUP1 ISZERO PUSH2 0x38F JUMPI PUSH1 0x0 DUP1 REVERT JUMPDEST POP PUSH2 0x297 PUSH2 0x39E CALLDATASIZE PUSH1 0x4 PUSH2 0x1AB7 JUMP JUMPDEST PUSH2 0xAFF JUMP JUMPDEST CALLVALUE DUP1 ISZERO PUSH2 0x3AF JUMPI PUSH1 0x0 DUP1 REVERT JUMPDEST POP PUSH2 0x234 PUSH2 0x3BE CALLDATASIZE PUSH1 0x4 PUSH2 0x1AE3 JUMP JUMPDEST PUSH2 0xB37 JUMP JUMPDEST PUSH2 0x297 PUSH2 0xC4B JUMP JUMPDEST CALLVALUE DUP1 ISZERO PUSH2 0x3D7 JUMPI PUSH1 0x0 DUP1 REVERT JUMPDEST POP PUSH2 0x297 PUSH2 0xEBA JUMP JUMPDEST CALLVALUE DUP1 ISZERO PUSH2 0x3EC JUMPI PUSH1 0x0 DUP1 REVERT JUMPDEST POP PUSH2 0x297 PUSH2 0xF25 JUMP JUMPDEST CALLVALUE DUP1 ISZERO PUSH2 0x401 JUMPI PUSH1 0x0 DUP1 REVERT JUMPDEST POP PUSH1 0x2 SLOAD PUSH1 0xFF AND PUSH2 0x267 JUMP JUMPDEST CALLVALUE DUP1 ISZERO PUSH2 0x419 JUMPI PUSH1 0x0 DUP1 REVERT JUMPDEST POP PUSH2 0x234 PUSH1 0x5 SLOAD DUP2 JUMP JUMPDEST CALLVALUE DUP1 ISZERO PUSH2 0x42F JUMPI PUSH1 0x0 DUP1 REVERT JUMPDEST POP PUSH2 0x267 PUSH2 0x43E CALLDATASIZE PUSH1 0x4 PUSH2 0x1AE3 JUMP JUMPDEST PUSH1 0x9 PUSH1 0x20 MSTORE PUSH1 0x0 SWAP1 DUP2 MSTORE PUSH1 0x40 SWAP1 KECCAK256 SLOAD PUSH1 0xFF AND DUP2 JUMP JUMPDEST CALLVALUE DUP1 ISZERO PUSH2 0x45F JUMPI PUSH1 0x0 DUP1 REVERT JUMPDEST POP PUSH2 0x234 PUSH32 0xA49807205CE4D355092EF5A8A18F56E8913CF4A201FBE287825B095693C21775 DUP2 JUMP JUMPDEST CALLVALUE DUP1 ISZERO PUSH2 0x493 JUMPI PUSH1 0x0 DUP1 REVERT JUMPDEST POP PUSH2 0x234 PUSH1 0x3 SLOAD DUP2 JUMP JUMPDEST CALLVALUE DUP1 ISZERO PUSH2 0x4A9 JUMPI PUSH1 0x0 DUP1 REVERT JUMPDEST POP PUSH2 0x234 PUSH2 0x4B8 CALLDATASIZE PUSH1 0x4 PUSH2 0x1AE3 JUMP JUMPDEST PUSH1 0xA PUSH1 0x20 MSTORE PUSH1 0x0 SWAP1 DUP2 MSTORE PUSH1 0x40 SWAP1 KECCAK256 SLOAD DUP2 JUMP JUMPDEST CALLVALUE DUP1 ISZERO PUSH2 0x4D6 JUMPI PUSH1 0x0 DUP1 REVERT JUMPDEST POP PUSH2 0x234 PUSH2 0xE10 DUP2 JUMP JUMPDEST CALLVALUE DUP1 ISZERO PUSH2 0x4EC JUMPI PUSH1 0x0 DUP1 REVERT JUMPDEST POP PUSH2 0x297 PUSH2 0x1367 JUMP JUMPDEST CALLVALUE DUP1 ISZERO PUSH2 0x501 JUMPI PUSH1 0x0 DUP1 REVERT JUMPDEST POP PUSH2 0x234 PUSH7 0x2386F26FC10000 DUP2 JUMP JUMPDEST CALLVALUE DUP1 ISZERO PUSH2 0x51C JUMPI PUSH1 0x0 DUP1 REVERT JUMPDEST POP PUSH2 0x234 PUSH2 0x52B CALLDATASIZE PUSH1 0x4 PUSH2 0x1AE3 JUMP JUMPDEST PUSH1 0x7 PUSH1 0x20 MSTORE PUSH1 0x0 SWAP1 DUP2 MSTORE PUSH1 0x40 SWAP1 KECCAK256 SLOAD DUP2 JUMP JUMPDEST CALLVALUE DUP1 ISZERO PUSH2 0x549 JUMPI PUSH1 0x0 DUP1 REVERT JUMPDEST POP PUSH2 0x234 PUSH2 0x12C DUP2 JUMP JUMPDEST CALLVALUE DUP1 ISZERO PUSH2 0x55F JUMPI PUSH1 0x0 DUP1 REVERT JUMPDEST POP PUSH2 0x267 PUSH2 0x56E CALLDATASIZE PUSH1 0x4 PUSH2 0x1AB7 JUMP JUMPDEST PUSH2 0x13CB JUMP JUMPDEST CALLVALUE DUP1 ISZERO PUSH2 0x57F JUMPI PUSH1 0x0 DUP1 REVERT JUMPDEST POP PUSH2 0x234 PUSH1 0x0 DUP2 JUMP JUMPDEST CALLVALUE DUP1 ISZERO PUSH2 0x594 JUMPI PUSH1 0x0 DUP1 REVERT JUMPDEST POP PUSH2 0x5BC PUSH32 0x0 DUP2 JUMP JUMPDEST PUSH1 0x40 MLOAD PUSH1 0x1 PUSH1 0x1 PUSH1 0xA0 SHL SUB SWAP1 SWAP2 AND DUP2 MSTORE PUSH1 0x20 ADD PUSH2 0x23E JUMP JUMPDEST CALLVALUE DUP1 ISZERO PUSH2 0x5E0 JUMPI PUSH1 0x0 DUP1 REVERT JUMPDEST POP PUSH2 0x267 PUSH2 0x5EF CALLDATASIZE PUSH1 0x4 PUSH2 0x1AE3 JUMP JUMPDEST PUSH1 0x8 PUSH1 0x20 MSTORE PUSH1 0x0 SWAP1 DUP2 MSTORE PUSH1 0x40 SWAP1 KECCAK256 SLOAD PUSH1 0xFF AND DUP2 JUMP JUMPDEST CALLVALUE DUP1 ISZERO PUSH2 0x610 JUMPI PUSH1 0x0 DUP1 REVERT JUMPDEST POP PUSH2 0x297 PUSH2 0x61F CALLDATASIZE PUSH1 0x4 PUSH2 0x1AB7 JUMP JUMPDEST PUSH2 0x13F6 JUMP JUMPDEST CALLVALUE DUP1 ISZERO PUSH2 0x630 JUMPI PUSH1 0x0 DUP1 REVERT JUMPDEST POP PUSH2 0x644 PUSH2 0x63F CALLDATASIZE PUSH1 0x4 PUSH2 0x1AE3 JUMP JUMPDEST PUSH2 0x141C JUMP JUMPDEST PUSH1 0x40 DUP1 MLOAD SWAP4 DUP5 MSTORE PUSH1 0x20 DUP5 ADD SWAP3 SWAP1 SWAP3 MSTORE SWAP1 DUP3 ADD MSTORE PUSH1 0x60 ADD PUSH2 0x23E JUMP JUMPDEST CALLVALUE DUP1 ISZERO PUSH2 0x66B JUMPI PUSH1 0x0 DUP1 REVERT JUMPDEST POP PUSH2 0x5BC PUSH32 0x0 DUP2 JUMP JUMPDEST CALLVALUE DUP1 ISZERO PUSH2 0x69F JUMPI PUSH1 0x0 DUP1 REVERT JUMPDEST POP PUSH2 0x297 PUSH2 0x14BD JUMP JUMPDEST CALLVALUE DUP1 ISZERO PUSH2 0x6B4 JUMPI PUSH1 0x0 DUP1 REVERT JUMPDEST POP PUSH2 0x234 PUSH2 0x3E8 DUP2 JUMP JUMPDEST CALLVALUE DUP1 ISZERO PUSH2 0x6CA JUMPI PUSH1 0x0 DUP1 REVERT JUMPDEST POP PUSH2 0x234 PUSH32 0x65D7A28E3265B37A6474929F336521B332C1681B933F6CB9F3376673440D862A DUP2 JUMP JUMPDEST PUSH1 0x0 PUSH1 0x1 PUSH1 0x1 PUSH1 0xE0 SHL SUB NOT DUP3 AND PUSH4 0x7965DB0B PUSH1 0xE0 SHL EQ DUP1 PUSH2 0x723 JUMPI POP PUSH4 0x1FFC9A7 PUSH1 0xE0 SHL PUSH1 0x1 PUSH1 0x1 PUSH1 0xE0 SHL SUB NOT DUP4 AND EQ JUMPDEST SWAP3 SWAP2 POP POP JUMP JUMPDEST PUSH32 0xA49807205CE4D355092EF5A8A18F56E8913CF4A201FBE287825B095693C21775 PUSH2 0x753 DUP2 PUSH2 0x166E JUMP JUMPDEST PUSH32 0x0 PUSH1 0x1 PUSH1 0x1 PUSH1 0xA0 SHL SUB AND DUP4 PUSH1 0x1 PUSH1 0x1 PUSH1 0xA0 SHL SUB AND EQ DUP1 ISZERO PUSH2 0x7A3 JUMPI POP PUSH1 0x4 SLOAD PUSH2 0x79F SWAP1 PUSH3 0x278D00 PUSH2 0x1B14 JUMP JUMPDEST TIMESTAMP GT ISZERO JUMPDEST ISZERO PUSH2 0x80F JUMPI PUSH1 0x40 MLOAD PUSH4 0x1186D0B7 PUSH1 0xE3 SHL DUP2 MSTORE PUSH1 0x20 PUSH1 0x4 DUP3 ADD MSTORE PUSH1 0x30 PUSH1 0x24 DUP3 ADD MSTORE PUSH32 0x43616E6E6F742077697468647261772044414E4B20746F6B656E732064757269 PUSH1 0x44 DUP3 ADD MSTORE PUSH16 0x1B99C81858DD1A5D99481C195C9A5BD9 PUSH1 0x82 SHL PUSH1 0x64 DUP3 ADD MSTORE PUSH1 0x84 ADD JUMPDEST PUSH1 0x40 MLOAD DUP1 SWAP2 SUB SWAP1 REVERT JUMPDEST PUSH1 0x40 MLOAD PUSH4 0xA9059CBB PUSH1 0xE0 SHL DUP2 MSTORE CALLER PUSH1 0x4 DUP3 ADD MSTORE PUSH1 0x24 DUP2 ADD DUP4 SWAP1 MSTORE PUSH1 0x1 PUSH1 0x1 PUSH1 0xA0 SHL SUB DUP5 AND SWAP1 PUSH4 0xA9059CBB SWAP1 PUSH1 0x44 ADD PUSH1 0x20 PUSH1 0x40 MLOAD DUP1 DUP4 SUB DUP2 PUSH1 0x0 DUP8 GAS CALL ISZERO DUP1 ISZERO PUSH2 0x85C JUMPI RETURNDATASIZE PUSH1 0x0 DUP1 RETURNDATACOPY RETURNDATASIZE PUSH1 0x0 REVERT JUMPDEST POP POP POP POP PUSH1 0x40 MLOAD RETURNDATASIZE PUSH1 0x1F NOT PUSH1 0x1F DUP3 ADD AND DUP3 ADD DUP1 PUSH1 0x40 MSTORE POP DUP2 ADD SWAP1 PUSH2 0x880 SWAP2 SWAP1 PUSH2 0x1B27 JUMP JUMPDEST PUSH2 0x8C5 JUMPI PUSH1 0x40 MLOAD PUSH4 0x12DFDDB3 PUSH1 0xE0 SHL DUP2 MSTORE PUSH1 0x20 PUSH1 0x4 DUP3 ADD MSTORE PUSH1 0x15 PUSH1 0x24 DUP3 ADD MSTORE PUSH21 0x151BDAD95B881C9958DBDD995C9E4819985A5B1959 PUSH1 0x5A SHL PUSH1 0x44 DUP3 ADD MSTORE PUSH1 0x64 ADD PUSH2 0x806 JUMP JUMPDEST PUSH1 0x40 DUP1 MLOAD DUP4 DUP2 MSTORE TIMESTAMP PUSH1 0x20 DUP3 ADD MSTORE PUSH1 0x1 PUSH1 0x1 PUSH1 0xA0 SHL SUB DUP6 AND SWAP2 PUSH32 0x1B47A558841D5932EAC8D9B54D715979F08192E29AA6F5ACEFDFBEDD4286FBE7 SWAP2 ADD PUSH1 0x40 MLOAD DUP1 SWAP2 SUB SWAP1 LOG2 POP POP POP JUMP JUMPDEST PUSH32 0xA49807205CE4D355092EF5A8A18F56E8913CF4A201FBE287825B095693C21775 PUSH2 0x937 DUP2 PUSH2 0x166E JUMP JUMPDEST PUSH1 0x6 SLOAD PUSH1 0xFF AND ISZERO PUSH2 0x981 JUMPI PUSH1 0x40 MLOAD PUSH4 0x1186D0B7 PUSH1 0xE3 SHL DUP2 MSTORE PUSH1 0x20 PUSH1 0x4 DUP3 ADD MSTORE PUSH1 0x13 PUSH1 0x24 DUP3 ADD MSTORE PUSH19 0x105B1C9958591E481A5B9A5D1A585B1A5E9959 PUSH1 0x6A SHL PUSH1 0x44 DUP3 ADD MSTORE PUSH1 0x64 ADD PUSH2 0x806 JUMP JUMPDEST PUSH1 0x40 MLOAD PUSH4 0x70A08231 PUSH1 0xE0 SHL DUP2 MSTORE ADDRESS PUSH1 0x4 DUP3 ADD MSTORE PUSH13 0x153D4A729495DAF1A24800000 SWAP1 PUSH32 0x0 PUSH1 0x1 PUSH1 0x1 PUSH1 0xA0 SHL SUB AND SWAP1 PUSH4 0x70A08231 SWAP1 PUSH1 0x24 ADD PUSH1 0x20 PUSH1 0x40 MLOAD DUP1 DUP4 SUB DUP2 DUP7 GAS STATICCALL ISZERO DUP1 ISZERO PUSH2 0x9F4 JUMPI RETURNDATASIZE PUSH1 0x0 DUP1 RETURNDATACOPY RETURNDATASIZE PUSH1 0x0 REVERT JUMPDEST POP POP POP POP PUSH1 0x40 MLOAD RETURNDATASIZE PUSH1 0x1F NOT PUSH1 0x1F DUP3 ADD AND DUP3 ADD DUP1 PUSH1 0x40 MSTORE POP DUP2 ADD SWAP1 PUSH2 0xA18 SWAP2 SWAP1 PUSH2 0x1B49 JUMP JUMPDEST LT ISZERO PUSH2 0xA5D JUMPI PUSH1 0x40 MLOAD PUSH4 0x1186D0B7 PUSH1 0xE3 SHL DUP2 MSTORE PUSH1 0x20 PUSH1 0x4 DUP3 ADD MSTORE PUSH1 0x13 PUSH1 0x24 DUP3 ADD MSTORE PUSH19 0x496E73756666696369656E7420746F6B656E73 PUSH1 0x68 SHL PUSH1 0x44 DUP3 ADD MSTORE PUSH1 0x64 ADD PUSH2 0x806 JUMP JUMPDEST TIMESTAMP PUSH1 0x3 DUP2 SWAP1 SSTORE PUSH2 0xA71 SWAP1 PUSH3 0x15180 SWAP1 PUSH2 0x1B14 JUMP JUMPDEST PUSH1 0x4 DUP2 SWAP1 SSTORE PUSH1 0x6 DUP1 SLOAD PUSH1 0xFF NOT AND PUSH1 0x1 OR SWAP1 SSTORE PUSH1 0x3 SLOAD PUSH1 0x40 MLOAD PUSH32 0x2432AC7D1A69EDF7A84A587B57CBFBA673D3513D85558394C1C81D327923A689 SWAP3 PUSH2 0xAC8 SWAP3 SWAP2 TIMESTAMP SWAP1 SWAP3 DUP4 MSTORE PUSH1 0x20 DUP4 ADD SWAP2 SWAP1 SWAP2 MSTORE PUSH1 0x40 DUP3 ADD MSTORE PUSH1 0x60 ADD SWAP1 JUMP JUMPDEST PUSH1 0x40 MLOAD DUP1 SWAP2 SUB SWAP1 LOG1 POP JUMP JUMPDEST PUSH1 0x0 DUP3 DUP2 MSTORE PUSH1 0x1 PUSH1 0x20 DUP2 SWAP1 MSTORE PUSH1 0x40 SWAP1 SWAP2 KECCAK256 ADD SLOAD PUSH2 0xAEF DUP2 PUSH2 0x166E JUMP JUMPDEST PUSH2 0xAF9 DUP4 DUP4 PUSH2 0x167B JUMP JUMPDEST POP POP POP POP JUMP JUMPDEST PUSH1 0x1 PUSH1 0x1 PUSH1 0xA0 SHL SUB DUP2 AND CALLER EQ PUSH2 0xB28 JUMPI PUSH1 0x40 MLOAD PUSH4 0x334BD919 PUSH1 0xE1 SHL DUP2 MSTORE PUSH1 0x4 ADD PUSH1 0x40 MLOAD DUP1 SWAP2 SUB SWAP1 REVERT JUMPDEST PUSH2 0xB32 DUP3 DUP3 PUSH2 0x16F4 JUMP JUMPDEST POP POP POP JUMP JUMPDEST PUSH1 0x0 PUSH1 0x5 SLOAD PUSH1 0x0 EQ DUP1 PUSH2 0xB60 JUMPI POP PUSH1 0x1 PUSH1 0x1 PUSH1 0xA0 SHL SUB DUP3 AND PUSH1 0x0 SWAP1 DUP2 MSTORE PUSH1 0x7 PUSH1 0x20 MSTORE PUSH1 0x40 SWAP1 KECCAK256 SLOAD ISZERO JUMPDEST ISZERO PUSH2 0xB6D JUMPI POP PUSH1 0x0 SWAP2 SWAP1 POP JUMP JUMPDEST PUSH1 0x5 SLOAD PUSH1 0x1 PUSH1 0x1 PUSH1 0xA0 SHL SUB DUP4 AND PUSH1 0x0 SWAP1 DUP2 MSTORE PUSH1 0x7 PUSH1 0x20 MSTORE PUSH1 0x40 DUP2 KECCAK256 SLOAD SWAP1 SWAP2 SWAP1 PUSH2 0xBAB PUSH8 0xDE0B6B3A7640000 PUSH13 0x153D4A729495DAF1A24800000 PUSH2 0x1B62 JUMP JUMPDEST PUSH2 0xBB5 SWAP2 SWAP1 PUSH2 0x1B62 JUMP JUMPDEST PUSH2 0xBBF SWAP2 SWAP1 PUSH2 0x1B8F JUMP JUMPDEST SWAP1 POP PUSH1 0x0 PUSH2 0xBD5 PUSH8 0xDE0B6B3A7640000 DUP4 PUSH2 0x1B8F JUMP JUMPDEST SWAP1 POP PUSH1 0x0 PUSH2 0xBEB PUSH8 0xDE0B6B3A7640000 DUP5 PUSH2 0x1BA3 JUMP JUMPDEST SWAP1 POP DUP1 ISZERO PUSH2 0xC30 JUMPI PUSH1 0x5 SLOAD PUSH1 0x1 PUSH1 0x1 PUSH1 0xA0 SHL SUB DUP7 AND PUSH1 0x0 SWAP1 DUP2 MSTORE PUSH1 0x7 PUSH1 0x20 MSTORE PUSH1 0x40 SWAP1 KECCAK256 SLOAD PUSH2 0xC19 SWAP1 DUP4 PUSH2 0x1B62 JUMP JUMPDEST PUSH2 0xC23 SWAP2 SWAP1 PUSH2 0x1B8F JUMP JUMPDEST PUSH2 0xC2D SWAP1 DUP4 PUSH2 0x1B14 JUMP JUMPDEST SWAP2 POP JUMPDEST PUSH2 0x3E8 DUP3 LT PUSH2 0xC3F JUMPI DUP2 PUSH2 0xC42 JUMP JUMPDEST PUSH1 0x0 JUMPDEST SWAP6 SWAP5 POP POP POP POP POP JUMP JUMPDEST PUSH2 0xC53 PUSH2 0x1761 JUMP JUMPDEST PUSH2 0xC5B PUSH2 0x178B JUMP JUMPDEST PUSH1 0x6 SLOAD PUSH1 0xFF AND PUSH2 0xCA5 JUMPI PUSH1 0x40 MLOAD PUSH4 0x1186D0B7 PUSH1 0xE3 SHL DUP2 MSTORE PUSH1 0x20 PUSH1 0x4 DUP3 ADD MSTORE PUSH1 0x14 PUSH1 0x24 DUP3 ADD MSTORE PUSH20 0x141BDBDB081B9BDD081A5B9A5D1A585B1A5E9959 PUSH1 0x62 SHL PUSH1 0x44 DUP3 ADD MSTORE PUSH1 0x64 ADD PUSH2 0x806 JUMP JUMPDEST PUSH1 0x3 SLOAD TIMESTAMP LT ISZERO PUSH2 0xCE6 JUMPI PUSH1 0x40 MLOAD PUSH4 0x1186D0B7 PUSH1 0xE3 SHL DUP2 MSTORE PUSH1 0x20 PUSH1 0x4 DUP3 ADD MSTORE PUSH1 0xB PUSH1 0x24 DUP3 ADD MSTORE PUSH11 0x139BDD081CDD185C9D1959 PUSH1 0xAA SHL PUSH1 0x44 DUP3 ADD MSTORE PUSH1 0x64 ADD PUSH2 0x806 JUMP JUMPDEST PUSH2 0x12C PUSH1 0x4 SLOAD PUSH2 0xCF6 SWAP2 SWAP1 PUSH2 0x1BB7 JUMP JUMPDEST TIMESTAMP GT ISZERO PUSH2 0xD39 JUMPI PUSH1 0x40 MLOAD PUSH4 0x1186D0B7 PUSH1 0xE3 SHL DUP2 MSTORE PUSH1 0x20 PUSH1 0x4 DUP3 ADD MSTORE PUSH1 0x10 PUSH1 0x24 DUP3 ADD MSTORE PUSH16 0x151BDBC818DB1BDCD9481D1BC8195B99 PUSH1 0x82 SHL PUSH1 0x44 DUP3 ADD MSTORE PUSH1 0x64 ADD PUSH2 0x806 JUMP JUMPDEST PUSH7 0x2386F26FC10000 CALLVALUE LT ISZERO PUSH2 0xD70 JUMPI PUSH1 0x40 MLOAD PUSH4 0x7C83FCF PUSH1 0xE4 SHL DUP2 MSTORE CALLVALUE PUSH1 0x4 DUP3 ADD MSTORE PUSH7 0x2386F26FC10000 PUSH1 0x24 DUP3 ADD MSTORE PUSH1 0x44 ADD PUSH2 0x806 JUMP JUMPDEST CALLER PUSH1 0x0 SWAP1 DUP2 MSTORE PUSH1 0xA PUSH1 0x20 MSTORE PUSH1 0x40 SWAP1 KECCAK256 SLOAD PUSH2 0xD8D SWAP1 PUSH2 0xE10 SWAP1 PUSH2 0x1B14 JUMP JUMPDEST TIMESTAMP LT ISZERO PUSH2 0xDCF JUMPI PUSH1 0x40 MLOAD PUSH4 0x4565DAB1 PUSH1 0xE1 SHL DUP2 MSTORE PUSH1 0x20 PUSH1 0x4 DUP3 ADD MSTORE PUSH1 0xF PUSH1 0x24 DUP3 ADD MSTORE PUSH15 0x436F6F6C646F776E20616374697665 PUSH1 0x88 SHL PUSH1 0x44 DUP3 ADD MSTORE PUSH1 0x64 ADD PUSH2 0x806 JUMP JUMPDEST CALLER PUSH1 0x0 SWAP1 DUP2 MSTORE PUSH1 0x7 PUSH1 0x20 MSTORE PUSH1 0x40 DUP2 KECCAK256 SLOAD PUSH2 0xDEA SWAP1 CALLVALUE SWAP1 PUSH2 0x1B14 JUMP JUMPDEST SWAP1 POP PUSH8 0x6F05B59D3B20000 DUP2 GT ISZERO PUSH2 0xE26 JUMPI PUSH1 0x40 MLOAD PUSH4 0x7C83FCF PUSH1 0xE4 SHL DUP2 MSTORE PUSH1 0x4 DUP2 ADD DUP3 SWAP1 MSTORE PUSH8 0x6F05B59D3B20000 PUSH1 0x24 DUP3 ADD MSTORE PUSH1 0x44 ADD PUSH2 0x806 JUMP JUMPDEST CALLER PUSH1 0x0 SWAP1 DUP2 MSTORE PUSH1 0x7 PUSH1 0x20 MSTORE PUSH1 0x40 DUP2 KECCAK256 DUP3 SWAP1 SSTORE PUSH1 0x5 DUP1 SLOAD CALLVALUE SWAP3 SWAP1 PUSH2 0xE4A SWAP1 DUP5 SWAP1 PUSH2 0x1B14 JUMP JUMPDEST SWAP1 SWAP2 SSTORE POP POP CALLER PUSH1 0x0 DUP2 DUP2 MSTORE PUSH1 0x8 PUSH1 0x20 SWAP1 DUP2 MSTORE PUSH1 0x40 DUP1 DUP4 KECCAK256 DUP1 SLOAD PUSH1 0xFF NOT AND PUSH1 0x1 OR SWAP1 SSTORE PUSH1 0xA DUP3 MSTORE SWAP2 DUP3 SWAP1 KECCAK256 TIMESTAMP SWAP1 DUP2 SWAP1 SSTORE DUP3 MLOAD CALLVALUE DUP2 MSTORE SWAP2 DUP3 ADD MSTORE PUSH32 0x1449C6DD7851ABC30ABF37F57715F492010519147CC2652FBC38202C18A6EE90 SWAP2 ADD PUSH1 0x40 MLOAD DUP1 SWAP2 SUB SWAP1 LOG2 POP PUSH2 0xEB8 PUSH1 0x1 PUSH1 0x0 SSTORE JUMP JUMPDEST JUMP JUMPDEST PUSH32 0x65D7A28E3265B37A6474929F336521B332C1681B933F6CB9F3376673440D862A PUSH2 0xEE4 DUP2 PUSH2 0x166E JUMP JUMPDEST PUSH2 0xEEC PUSH2 0x17AF JUMP JUMPDEST PUSH1 0x40 MLOAD TIMESTAMP DUP2 MSTORE CALLER SWAP1 PUSH32 0x7218B4A8A456456C2CF5DBCD9202A02880A891C6F9DFAFD90E7BE5531523A031 SWAP1 PUSH1 0x20 ADD JUMPDEST PUSH1 0x40 MLOAD DUP1 SWAP2 SUB SWAP1 LOG2 POP JUMP JUMPDEST PUSH2 0xF2D PUSH2 0x1761 JUMP JUMPDEST PUSH1 0x4 SLOAD TIMESTAMP GT PUSH2 0xF7F JUMPI PUSH1 0x40 MLOAD PUSH4 0x1186D0B7 PUSH1 0xE3 SHL DUP2 MSTORE PUSH1 0x20 PUSH1 0x4 DUP3 ADD MSTORE PUSH1 0x18 PUSH1 0x24 DUP3 ADD MSTORE PUSH32 0x46616972206C61756E6368207374696C6C206163746976650000000000000000 PUSH1 0x44 DUP3 ADD MSTORE PUSH1 0x64 ADD PUSH2 0x806 JUMP JUMPDEST PUSH2 0xF88 CALLER PUSH2 0x1801 JUMP JUMPDEST PUSH1 0x0 PUSH2 0xF93 CALLER PUSH2 0xB37 JUMP JUMPDEST SWAP1 POP PUSH2 0x3E8 DUP2 LT ISZERO PUSH2 0xFDF JUMPI PUSH1 0x40 MLOAD PUSH4 0x3FBB0B01 PUSH1 0xE0 SHL DUP2 MSTORE PUSH1 0x20 PUSH1 0x4 DUP3 ADD MSTORE PUSH1 0x14 PUSH1 0x24 DUP3 ADD MSTORE PUSH20 0x105B1B1BD8D85D1A5BDB881D1BDBC81CDB585B1B PUSH1 0x62 SHL PUSH1 0x44 DUP3 ADD MSTORE PUSH1 0x64 ADD PUSH2 0x806 JUMP JUMPDEST CALLER PUSH1 0x0 SWAP1 DUP2 MSTORE PUSH1 0x7 PUSH1 0x20 MSTORE PUSH1 0x40 SWAP1 DUP2 SWAP1 KECCAK256 SLOAD SWAP1 MLOAD PUSH4 0x70A08231 PUSH1 0xE0 SHL DUP2 MSTORE ADDRESS PUSH1 0x4 DUP3 ADD MSTORE DUP3 SWAP1 PUSH1 0x1 PUSH1 0x1 PUSH1 0xA0 SHL SUB PUSH32 0x0 AND SWAP1 PUSH4 0x70A08231 SWAP1 PUSH1 0x24 ADD PUSH1 0x20 PUSH1 0x40 MLOAD DUP1 DUP4 SUB DUP2 DUP7 GAS STATICCALL ISZERO DUP1 ISZERO PUSH2 0x1056 JUMPI RETURNDATASIZE PUSH1 0x0 DUP1 RETURNDATACOPY RETURNDATASIZE PUSH1 0x0 REVERT JUMPDEST POP POP POP POP PUSH1 0x40 MLOAD RETURNDATASIZE PUSH1 0x1F NOT PUSH1 0x1F DUP3 ADD AND DUP3 ADD DUP1 PUSH1 0x40 MSTORE POP DUP2 ADD SWAP1 PUSH2 0x107A SWAP2 SWAP1 PUSH2 0x1B49 JUMP JUMPDEST LT ISZERO PUSH2 0x10BF JUMPI PUSH1 0x40 MLOAD PUSH4 0x3FBB0B01 PUSH1 0xE0 SHL DUP2 MSTORE PUSH1 0x20 PUSH1 0x4 DUP3 ADD MSTORE PUSH1 0x13 PUSH1 0x24 DUP3 ADD MSTORE PUSH19 0x496E73756666696369656E7420746F6B656E73 PUSH1 0x68 SHL PUSH1 0x44 DUP3 ADD MSTORE PUSH1 0x64 ADD PUSH2 0x806 JUMP JUMPDEST CALLER PUSH1 0x0 SWAP1 DUP2 MSTORE PUSH1 0x9 PUSH1 0x20 MSTORE PUSH1 0x40 DUP2 KECCAK256 DUP1 SLOAD PUSH1 0xFF NOT AND PUSH1 0x1 OR SWAP1 SSTORE PUSH2 0x10E8 DUP3 PUSH2 0x1F4 PUSH2 0x2710 PUSH2 0x1912 JUMP JUMPDEST SWAP1 POP PUSH1 0x0 PUSH2 0x10F6 DUP3 DUP5 PUSH2 0x1BB7 JUMP JUMPDEST SWAP1 POP PUSH1 0x0 PUSH32 0x0 PUSH1 0x1 PUSH1 0x1 PUSH1 0xA0 SHL SUB AND DUP4 PUSH1 0x40 MLOAD PUSH1 0x0 PUSH1 0x40 MLOAD DUP1 DUP4 SUB DUP2 DUP6 DUP8 GAS CALL SWAP3 POP POP POP RETURNDATASIZE DUP1 PUSH1 0x0 DUP2 EQ PUSH2 0x1165 JUMPI PUSH1 0x40 MLOAD SWAP2 POP PUSH1 0x1F NOT PUSH1 0x3F RETURNDATASIZE ADD AND DUP3 ADD PUSH1 0x40 MSTORE RETURNDATASIZE DUP3 MSTORE RETURNDATASIZE PUSH1 0x0 PUSH1 0x20 DUP5 ADD RETURNDATACOPY PUSH2 0x116A JUMP JUMPDEST PUSH1 0x60 SWAP2 POP JUMPDEST POP POP SWAP1 POP DUP1 PUSH2 0x11B2 JUMPI PUSH1 0x40 MLOAD PUSH4 0x12DFDDB3 PUSH1 0xE0 SHL DUP2 MSTORE PUSH1 0x20 PUSH1 0x4 DUP3 ADD MSTORE PUSH1 0x13 PUSH1 0x24 DUP3 ADD MSTORE PUSH19 0x119959481D1C985B9CD9995C8819985A5B1959 PUSH1 0x6A SHL PUSH1 0x44 DUP3 ADD MSTORE PUSH1 0x64 ADD PUSH2 0x806 JUMP JUMPDEST PUSH1 0x40 MLOAD PUSH1 0x0 SWAP1 CALLER SWAP1 DUP5 SWAP1 DUP4 DUP2 DUP2 DUP2 DUP6 DUP8 GAS CALL SWAP3 POP POP POP RETURNDATASIZE DUP1 PUSH1 0x0 DUP2 EQ PUSH2 0x11F4 JUMPI PUSH1 0x40 MLOAD SWAP2 POP PUSH1 0x1F NOT PUSH1 0x3F RETURNDATASIZE ADD AND DUP3 ADD PUSH1 0x40 MSTORE RETURNDATASIZE DUP3 MSTORE RETURNDATASIZE PUSH1 0x0 PUSH1 0x20 DUP5 ADD RETURNDATACOPY PUSH2 0x11F9 JUMP JUMPDEST PUSH1 0x60 SWAP2 POP JUMPDEST POP POP SWAP1 POP DUP1 PUSH2 0x123F JUMPI PUSH1 0x40 MLOAD PUSH4 0x12DFDDB3 PUSH1 0xE0 SHL DUP2 MSTORE PUSH1 0x20 PUSH1 0x4 DUP3 ADD MSTORE PUSH1 0x11 PUSH1 0x24 DUP3 ADD MSTORE PUSH17 0x115512081C995D1D5C9B8819985A5B1959 PUSH1 0x7A SHL PUSH1 0x44 DUP3 ADD MSTORE PUSH1 0x64 ADD PUSH2 0x806 JUMP JUMPDEST PUSH1 0x40 MLOAD PUSH4 0xA9059CBB PUSH1 0xE0 SHL DUP2 MSTORE CALLER PUSH1 0x4 DUP3 ADD MSTORE PUSH1 0x24 DUP2 ADD DUP8 SWAP1 MSTORE PUSH32 0x0 PUSH1 0x1 PUSH1 0x1 PUSH1 0xA0 SHL SUB AND SWAP1 PUSH4 0xA9059CBB SWAP1 PUSH1 0x44 ADD PUSH1 0x20 PUSH1 0x40 MLOAD DUP1 DUP4 SUB DUP2 PUSH1 0x0 DUP8 GAS CALL ISZERO DUP1 ISZERO PUSH2 0x12AC JUMPI RETURNDATASIZE PUSH1 0x0 DUP1 RETURNDATACOPY RETURNDATASIZE PUSH1 0x0 REVERT JUMPDEST POP POP POP POP PUSH1 0x40 MLOAD RETURNDATASIZE PUSH1 0x1F NOT PUSH1 0x1F DUP3 ADD AND DUP3 ADD DUP1 PUSH1 0x40 MSTORE POP DUP2 ADD SWAP1 PUSH2 0x12D0 SWAP2 SWAP1 PUSH2 0x1B27 JUMP JUMPDEST PUSH2 0x1315 JUMPI PUSH1 0x40 MLOAD PUSH4 0x12DFDDB3 PUSH1 0xE0 SHL DUP2 MSTORE PUSH1 0x20 PUSH1 0x4 DUP3 ADD MSTORE PUSH1 0x15 PUSH1 0x24 DUP3 ADD MSTORE PUSH21 0x151BDAD95B881D1C985B9CD9995C8819985A5B1959 PUSH1 0x5A SHL PUSH1 0x44 DUP3 ADD MSTORE PUSH1 0x64 ADD PUSH2 0x806 JUMP JUMPDEST PUSH1 0x40 DUP1 MLOAD DUP5 DUP2 MSTORE PUSH1 0x20 DUP2 ADD DUP9 SWAP1 MSTORE TIMESTAMP DUP2 DUP4 ADD MSTORE SWAP1 MLOAD CALLER SWAP2 PUSH32 0x75E161B3E824B114FC1A33274BD7091918DD4E639CEDE50B78B15A4EEA956A21 SWAP2 SWAP1 DUP2 SWAP1 SUB PUSH1 0x60 ADD SWAP1 LOG2 POP POP POP POP POP POP PUSH2 0xEB8 PUSH1 0x1 PUSH1 0x0 SSTORE JUMP JUMPDEST PUSH32 0x65D7A28E3265B37A6474929F336521B332C1681B933F6CB9F3376673440D862A PUSH2 0x1391 DUP2 PUSH2 0x166E JUMP JUMPDEST PUSH2 0x1399 PUSH2 0x198A JUMP JUMPDEST PUSH1 0x40 MLOAD TIMESTAMP DUP2 MSTORE CALLER SWAP1 PUSH32 0xDECCD871BD16197CE3D021A73302372354D5CD2B5C3F57065638C772BF5A7C28 SWAP1 PUSH1 0x20 ADD PUSH2 0xF1A JUMP JUMPDEST PUSH1 0x0 SWAP2 DUP3 MSTORE PUSH1 0x1 PUSH1 0x20 SWAP1 DUP2 MSTORE PUSH1 0x40 DUP1 DUP5 KECCAK256 PUSH1 0x1 PUSH1 0x1 PUSH1 0xA0 SHL SUB SWAP4 SWAP1 SWAP4 AND DUP5 MSTORE SWAP2 SWAP1 MSTORE SWAP1 KECCAK256 SLOAD PUSH1 0xFF AND SWAP1 JUMP JUMPDEST PUSH1 0x0 DUP3 DUP2 MSTORE PUSH1 0x1 PUSH1 0x20 DUP2 SWAP1 MSTORE PUSH1 0x40 SWAP1 SWAP2 KECCAK256 ADD SLOAD PUSH2 0x1412 DUP2 PUSH2 0x166E JUMP JUMPDEST PUSH2 0xAF9 DUP4 DUP4 PUSH2 0x16F4 JUMP JUMPDEST PUSH1 0x1 PUSH1 0x1 PUSH1 0xA0 SHL SUB DUP2 AND PUSH1 0x0 SWAP1 DUP2 MSTORE PUSH1 0x8 PUSH1 0x20 MSTORE PUSH1 0x40 DUP2 KECCAK256 SLOAD DUP2 SWAP1 DUP2 SWAP1 PUSH1 0xFF AND ISZERO DUP1 PUSH2 0x1460 JUMPI POP PUSH1 0x1 PUSH1 0x1 PUSH1 0xA0 SHL SUB DUP5 AND PUSH1 0x0 SWAP1 DUP2 MSTORE PUSH1 0x9 PUSH1 0x20 MSTORE PUSH1 0x40 SWAP1 KECCAK256 SLOAD PUSH1 0xFF AND JUMPDEST ISZERO PUSH2 0x1473 JUMPI POP PUSH1 0x0 SWAP2 POP DUP2 SWAP1 POP DUP1 PUSH2 0x14B6 JUMP JUMPDEST PUSH1 0x1 PUSH1 0x1 PUSH1 0xA0 SHL SUB DUP5 AND PUSH1 0x0 SWAP1 DUP2 MSTORE PUSH1 0x7 PUSH1 0x20 MSTORE PUSH1 0x40 SWAP1 KECCAK256 SLOAD PUSH2 0x149B DUP2 PUSH2 0x1F4 PUSH2 0x2710 PUSH2 0x1912 JUMP JUMPDEST SWAP2 POP PUSH2 0x14A7 DUP3 DUP3 PUSH2 0x1BB7 JUMP JUMPDEST SWAP3 POP PUSH2 0x14B2 DUP6 PUSH2 0xB37 JUMP JUMPDEST SWAP4 POP POP JUMPDEST SWAP2 SWAP4 SWAP1 SWAP3 POP JUMP JUMPDEST PUSH2 0x14C5 PUSH2 0x1761 JUMP JUMPDEST PUSH1 0x2 SLOAD PUSH1 0xFF AND PUSH2 0x1518 JUMPI PUSH1 0x40 MLOAD PUSH4 0x1186D0B7 PUSH1 0xE3 SHL DUP2 MSTORE PUSH1 0x20 PUSH1 0x4 DUP3 ADD MSTORE PUSH1 0x17 PUSH1 0x24 DUP3 ADD MSTORE PUSH32 0x436F6E7472616374206D75737420626520706175736564000000000000000000 PUSH1 0x44 DUP3 ADD MSTORE PUSH1 0x64 ADD PUSH2 0x806 JUMP JUMPDEST PUSH2 0x1521 CALLER PUSH2 0x1801 JUMP JUMPDEST CALLER PUSH1 0x0 SWAP1 DUP2 MSTORE PUSH1 0x7 PUSH1 0x20 MSTORE PUSH1 0x40 SWAP1 KECCAK256 SLOAD SELFBALANCE DUP2 GT ISZERO PUSH2 0x1582 JUMPI PUSH1 0x40 MLOAD PUSH4 0x1186D0B7 PUSH1 0xE3 SHL DUP2 MSTORE PUSH1 0x20 PUSH1 0x4 DUP3 ADD MSTORE PUSH1 0x1D PUSH1 0x24 DUP3 ADD MSTORE PUSH32 0x496E73756666696369656E7420636F6E74726163742062616C616E6365000000 PUSH1 0x44 DUP3 ADD MSTORE PUSH1 0x64 ADD PUSH2 0x806 JUMP JUMPDEST CALLER PUSH1 0x0 DUP2 DUP2 MSTORE PUSH1 0x9 PUSH1 0x20 MSTORE PUSH1 0x40 DUP1 DUP3 KECCAK256 DUP1 SLOAD PUSH1 0xFF NOT AND PUSH1 0x1 OR SWAP1 SSTORE MLOAD SWAP1 SWAP2 SWAP1 DUP4 SWAP1 DUP4 DUP2 DUP2 DUP2 DUP6 DUP8 GAS CALL SWAP3 POP POP POP RETURNDATASIZE DUP1 PUSH1 0x0 DUP2 EQ PUSH2 0x15DB JUMPI PUSH1 0x40 MLOAD SWAP2 POP PUSH1 0x1F NOT PUSH1 0x3F RETURNDATASIZE ADD AND DUP3 ADD PUSH1 0x40 MSTORE RETURNDATASIZE DUP3 MSTORE RETURNDATASIZE PUSH1 0x0 PUSH1 0x20 DUP5 ADD RETURNDATACOPY PUSH2 0x15E0 JUMP JUMPDEST PUSH1 0x60 SWAP2 POP JUMPDEST POP POP SWAP1 POP DUP1 PUSH2 0x1628 JUMPI PUSH1 0x40 MLOAD PUSH4 0x12DFDDB3 PUSH1 0xE0 SHL DUP2 MSTORE PUSH1 0x20 PUSH1 0x4 DUP3 ADD MSTORE PUSH1 0x13 PUSH1 0x24 DUP3 ADD MSTORE PUSH19 0x115512081D1C985B9CD9995C8819985A5B1959 PUSH1 0x6A SHL PUSH1 0x44 DUP3 ADD MSTORE PUSH1 0x64 ADD PUSH2 0x806 JUMP JUMPDEST PUSH1 0x40 DUP1 MLOAD DUP4 DUP2 MSTORE TIMESTAMP PUSH1 0x20 DUP3 ADD MSTORE CALLER SWAP2 PUSH32 0xBB757047C2B5F3974FE26B7C10F732E7BCE710B0952A71082702781E62AE0595 SWAP2 ADD PUSH1 0x40 MLOAD DUP1 SWAP2 SUB SWAP1 LOG2 POP POP PUSH2 0xEB8 PUSH1 0x1 PUSH1 0x0 SSTORE JUMP JUMPDEST PUSH2 0x1678 DUP2 CALLER PUSH2 0x19C7 JUMP JUMPDEST POP JUMP JUMPDEST PUSH1 0x0 PUSH2 0x1687 DUP4 DUP4 PUSH2 0x13CB JUMP JUMPDEST PUSH2 0x16EC JUMPI PUSH1 0x0 DUP4 DUP2 MSTORE PUSH1 0x1 PUSH1 0x20 DUP2 DUP2 MSTORE PUSH1 0x40 DUP1 DUP5 KECCAK256 PUSH1 0x1 PUSH1 0x1 PUSH1 0xA0 SHL SUB DUP8 AND DUP1 DUP7 MSTORE SWAP3 MSTORE DUP1 DUP5 KECCAK256 DUP1 SLOAD PUSH1 0xFF NOT AND SWAP1 SWAP4 OR SWAP1 SWAP3 SSTORE SWAP1 MLOAD CALLER SWAP3 DUP7 SWAP2 PUSH32 0x2F8788117E7EFF1D82E926EC794901D17C78024A50270940304540A733656F0D SWAP2 SWAP1 LOG4 POP PUSH1 0x1 PUSH2 0x723 JUMP JUMPDEST POP PUSH1 0x0 PUSH2 0x723 JUMP JUMPDEST PUSH1 0x0 PUSH2 0x1700 DUP4 DUP4 PUSH2 0x13CB JUMP JUMPDEST ISZERO PUSH2 0x16EC JUMPI PUSH1 0x0 DUP4 DUP2 MSTORE PUSH1 0x1 PUSH1 0x20 SWAP1 DUP2 MSTORE PUSH1 0x40 DUP1 DUP4 KECCAK256 PUSH1 0x1 PUSH1 0x1 PUSH1 0xA0 SHL SUB DUP7 AND DUP1 DUP6 MSTORE SWAP3 MSTORE DUP1 DUP4 KECCAK256 DUP1 SLOAD PUSH1 0xFF NOT AND SWAP1 SSTORE MLOAD CALLER SWAP3 DUP7 SWAP2 PUSH32 0xF6391F5C32D9C69D2A47EA670B442974B53935D1EDC7FD64EB21E047A839171B SWAP2 SWAP1 LOG4 POP PUSH1 0x1 PUSH2 0x723 JUMP JUMPDEST PUSH1 0x2 PUSH1 0x0 SLOAD SUB PUSH2 0x1784 JUMPI PUSH1 0x40 MLOAD PUSH4 0x3EE5AEB5 PUSH1 0xE0 SHL DUP2 MSTORE PUSH1 0x4 ADD PUSH1 0x40 MLOAD DUP1 SWAP2 SUB SWAP1 REVERT JUMPDEST PUSH1 0x2 PUSH1 0x0 SSTORE JUMP JUMPDEST PUSH1 0x2 SLOAD PUSH1 0xFF AND ISZERO PUSH2 0xEB8 JUMPI PUSH1 0x40 MLOAD PUSH4 0xD93C0665 PUSH1 0xE0 SHL DUP2 MSTORE PUSH1 0x4 ADD PUSH1 0x40 MLOAD DUP1 SWAP2 SUB SWAP1 REVERT JUMPDEST PUSH2 0x17B7 PUSH2 0x1A04 JUMP JUMPDEST PUSH1 0x2 DUP1 SLOAD PUSH1 0xFF NOT AND SWAP1 SSTORE PUSH32 0x5DB9EE0A495BF2E6FF9C91A7834C1BA4FDD244A5E8AA4E537BD38AEAE4B073AA CALLER JUMPDEST PUSH1 0x40 MLOAD PUSH1 0x1 PUSH1 0x1 PUSH1 0xA0 SHL SUB SWAP1 SWAP2 AND DUP2 MSTORE PUSH1 0x20 ADD PUSH1 0x40 MLOAD DUP1 SWAP2 SUB SWAP1 LOG1 JUMP JUMPDEST PUSH1 0x1 PUSH1 0x1 PUSH1 0xA0 SHL SUB DUP2 AND PUSH1 0x0 SWAP1 DUP2 MSTORE PUSH1 0x8 PUSH1 0x20 MSTORE PUSH1 0x40 SWAP1 KECCAK256 SLOAD PUSH1 0xFF AND PUSH2 0x185B JUMPI PUSH1 0x40 MLOAD PUSH4 0x4565DAB1 PUSH1 0xE1 SHL DUP2 MSTORE PUSH1 0x20 PUSH1 0x4 DUP3 ADD MSTORE PUSH1 0xE PUSH1 0x24 DUP3 ADD MSTORE PUSH14 0x139BC81CDD185AD948199BDD5B99 PUSH1 0x92 SHL PUSH1 0x44 DUP3 ADD MSTORE PUSH1 0x64 ADD PUSH2 0x806 JUMP JUMPDEST PUSH1 0x1 PUSH1 0x1 PUSH1 0xA0 SHL SUB DUP2 AND PUSH1 0x0 SWAP1 DUP2 MSTORE PUSH1 0x9 PUSH1 0x20 MSTORE PUSH1 0x40 SWAP1 KECCAK256 SLOAD PUSH1 0xFF AND ISZERO PUSH2 0x18B7 JUMPI PUSH1 0x40 MLOAD PUSH4 0x3FBB0B01 PUSH1 0xE0 SHL DUP2 MSTORE PUSH1 0x20 PUSH1 0x4 DUP3 ADD MSTORE PUSH1 0xF PUSH1 0x24 DUP3 ADD MSTORE PUSH15 0x105B1C9958591E4818DB185A5B5959 PUSH1 0x8A SHL PUSH1 0x44 DUP3 ADD MSTORE PUSH1 0x64 ADD PUSH2 0x806 JUMP JUMPDEST PUSH1 0x1 PUSH1 0x1 PUSH1 0xA0 SHL SUB DUP2 AND PUSH1 0x0 SWAP1 DUP2 MSTORE PUSH1 0x7 PUSH1 0x20 MSTORE PUSH1 0x40 DUP2 KECCAK256 SLOAD SWAP1 SUB PUSH2 0x1678 JUMPI PUSH1 0x40 MLOAD PUSH4 0x4565DAB1 PUSH1 0xE1 SHL DUP2 MSTORE PUSH1 0x20 PUSH1 0x4 DUP3 ADD MSTORE PUSH1 0x10 PUSH1 0x24 DUP3 ADD MSTORE PUSH16 0x4E6F7468696E6720746F20636C61696D PUSH1 0x80 SHL PUSH1 0x44 DUP3 ADD MSTORE PUSH1 0x64 ADD PUSH2 0x806 JUMP JUMPDEST PUSH1 0x0 DUP2 PUSH1 0x0 SUB PUSH2 0x193F JUMPI PUSH1 0x40 MLOAD PUSH4 0x7C83FCF PUSH1 0xE4 SHL DUP2 MSTORE PUSH1 0x4 DUP2 ADD DUP4 SWAP1 MSTORE PUSH1 0x1 PUSH1 0x24 DUP3 ADD MSTORE PUSH1 0x44 ADD PUSH2 0x806 JUMP JUMPDEST PUSH1 0x0 PUSH2 0x1953 PUSH8 0xDE0B6B3A7640000 DUP7 PUSH2 0x1B62 JUMP JUMPDEST SWAP1 POP PUSH1 0x0 DUP4 PUSH2 0x1962 DUP7 DUP5 PUSH2 0x1B62 JUMP JUMPDEST PUSH2 0x196C SWAP2 SWAP1 PUSH2 0x1B8F JUMP JUMPDEST SWAP1 POP PUSH2 0x1980 PUSH8 0xDE0B6B3A7640000 DUP3 PUSH2 0x1B8F JUMP JUMPDEST SWAP7 SWAP6 POP POP POP POP POP POP JUMP JUMPDEST PUSH2 0x1992 PUSH2 0x178B JUMP JUMPDEST PUSH1 0x2 DUP1 SLOAD PUSH1 0xFF NOT AND PUSH1 0x1 OR SWAP1 SSTORE PUSH32 0x62E78CEA01BEE320CD4E420270B5EA74000D11B0C9F74754EBDBFC544B05A258 PUSH2 0x17E4 CALLER SWAP1 JUMP JUMPDEST PUSH2 0x19D1 DUP3 DUP3 PUSH2 0x13CB JUMP JUMPDEST PUSH2 0x1A00 JUMPI PUSH1 0x40 MLOAD PUSH4 0xE2517D3F PUSH1 0xE0 SHL DUP2 MSTORE PUSH1 0x1 PUSH1 0x1 PUSH1 0xA0 SHL SUB DUP3 AND PUSH1 0x4 DUP3 ADD MSTORE PUSH1 0x24 DUP2 ADD DUP4 SWAP1 MSTORE PUSH1 0x44 ADD PUSH2 0x806 JUMP JUMPDEST POP POP JUMP JUMPDEST PUSH1 0x2 SLOAD PUSH1 0xFF AND PUSH2 0xEB8 JUMPI PUSH1 0x40 MLOAD PUSH4 0x8DFC202B PUSH1 0xE0 SHL DUP2 MSTORE PUSH1 0x4 ADD PUSH1 0x40 MLOAD DUP1 SWAP2 SUB SWAP1 REVERT JUMPDEST PUSH1 0x0 PUSH1 0x20 DUP3 DUP5 SUB SLT ISZERO PUSH2 0x1A39 JUMPI PUSH1 0x0 DUP1 REVERT JUMPDEST DUP2 CALLDATALOAD PUSH1 0x1 PUSH1 0x1 PUSH1 0xE0 SHL SUB NOT DUP2 AND DUP2 EQ PUSH2 0x1A51 JUMPI PUSH1 0x0 DUP1 REVERT JUMPDEST SWAP4 SWAP3 POP POP POP JUMP JUMPDEST DUP1 CALLDATALOAD PUSH1 0x1 PUSH1 0x1 PUSH1 0xA0 SHL SUB DUP2 AND DUP2 EQ PUSH2 0x1A6F JUMPI PUSH1 0x0 DUP1 REVERT JUMPDEST SWAP2 SWAP1 POP JUMP JUMPDEST PUSH1 0x0 DUP1 PUSH1 0x40 DUP4 DUP6 SUB SLT ISZERO PUSH2 0x1A87 JUMPI PUSH1 0x0 DUP1 REVERT JUMPDEST PUSH2 0x1A90 DUP4 PUSH2 0x1A58 JUMP JUMPDEST SWAP5 PUSH1 0x20 SWAP4 SWAP1 SWAP4 ADD CALLDATALOAD SWAP4 POP POP POP JUMP JUMPDEST PUSH1 0x0 PUSH1 0x20 DUP3 DUP5 SUB SLT ISZERO PUSH2 0x1AB0 JUMPI PUSH1 0x0 DUP1 REVERT JUMPDEST POP CALLDATALOAD SWAP2 SWAP1 POP JUMP JUMPDEST PUSH1 0x0 DUP1 PUSH1 0x40 DUP4 DUP6 SUB SLT ISZERO PUSH2 0x1ACA JUMPI PUSH1 0x0 DUP1 REVERT JUMPDEST DUP3 CALLDATALOAD SWAP2 POP PUSH2 0x1ADA PUSH1 0x20 DUP5 ADD PUSH2 0x1A58 JUMP JUMPDEST SWAP1 POP SWAP3 POP SWAP3 SWAP1 POP JUMP JUMPDEST PUSH1 0x0 PUSH1 0x20 DUP3 DUP5 SUB SLT ISZERO PUSH2 0x1AF5 JUMPI PUSH1 0x0 DUP1 REVERT JUMPDEST PUSH2 0x1A51 DUP3 PUSH2 0x1A58 JUMP JUMPDEST PUSH4 0x4E487B71 PUSH1 0xE0 SHL PUSH1 0x0 MSTORE PUSH1 0x11 PUSH1 0x4 MSTORE PUSH1 0x24 PUSH1 0x0 REVERT JUMPDEST DUP1 DUP3 ADD DUP1 DUP3 GT ISZERO PUSH2 0x723 JUMPI PUSH2 0x723 PUSH2 0x1AFE JUMP JUMPDEST PUSH1 0x0 PUSH1 0x20 DUP3 DUP5 SUB SLT ISZERO PUSH2 0x1B39 JUMPI PUSH1 0x0 DUP1 REVERT JUMPDEST DUP2 MLOAD DUP1 ISZERO ISZERO DUP2 EQ PUSH2 0x1A51 JUMPI PUSH1 0x0 DUP1 REVERT JUMPDEST PUSH1 0x0 PUSH1 0x20 DUP3 DUP5 SUB SLT ISZERO PUSH2 0x1B5B JUMPI PUSH1 0x0 DUP1 REVERT JUMPDEST POP MLOAD SWAP2 SWAP1 POP JUMP JUMPDEST DUP1 DUP3 MUL DUP2 ISZERO DUP3 DUP3 DIV DUP5 EQ OR PUSH2 0x723 JUMPI PUSH2 0x723 PUSH2 0x1AFE JUMP JUMPDEST PUSH4 0x4E487B71 PUSH1 0xE0 SHL PUSH1 0x0 MSTORE PUSH1 0x12 PUSH1 0x4 MSTORE PUSH1 0x24 PUSH1 0x0 REVERT JUMPDEST PUSH1 0x0 DUP3 PUSH2 0x1B9E JUMPI PUSH2 0x1B9E PUSH2 0x1B79 JUMP JUMPDEST POP DIV SWAP1 JUMP JUMPDEST PUSH1 0x0 DUP3 PUSH2 0x1BB2 JUMPI PUSH2 0x1BB2 PUSH2 0x1B79 JUMP JUMPDEST POP MOD SWAP1 JUMP JUMPDEST DUP2 DUP2 SUB DUP2 DUP2 GT ISZERO PUSH2 0x723 JUMPI PUSH2 0x723 PUSH2 0x1AFE JUMP INVALID LOG2 PUSH5 0x6970667358 0x22 SLT KECCAK256 0xED GASPRICE PUSH29 0x4348D007E265954709303C147633D646FCC5FB4B92995D7FBC026D0B3D PUSH5 0x736F6C6343 STOP ADDMOD SHL STOP CALLER "},"methodIdentifiers":{"ADMIN_ROLE()":"75b238fc","DEFAULT_ADMIN_ROLE()":"a217fddf","DURATION()":"1be05289","END_BUFFER()":"919b000b","FEE_PERCENTAGE()":"000b46f8","MAX_ETH_PER_WALLET()":"29db87e7","MIN_ALLOCATION()":"e5486bda","MIN_ETH_STAKE()":"87ac67c1","PAUSER_ROLE()":"e63ab1e9","STAKE_COOLDOWN()":"7ee75ca0","TOTAL_REWARDS()":"09cf6091","calculateTokenAllocation(address)":"36febc03","claimTokens()":"48c54b9d","dankToken()":"d6e903f4","emergencyWithdraw()":"db2e21bc","endTime()":"3197cbb6","feeCollector()":"c415b95c","getClaimableAmounts(address)":"d62a853a","getRoleAdmin(bytes32)":"248a9ca3","grantRole(bytes32,address)":"2f2ff15d","hasClaimed(address)":"73b2e80e","hasRole(bytes32,address)":"91d14854","hasStaked(address)":"c93c8f34","initializePool()":"250e6de0","initialized()":"158ef93e","lastStakeTime(address)":"7bb1ca19","pause()":"8456cb59","paused()":"5c975abb","recoverTokens(address,uint256)":"069c9fae","renounceRole(bytes32,address)":"36568abe","revokeRole(bytes32,address)":"d547741f","stake()":"3a4b66f1","startTime()":"78e97925","supportsInterface(bytes4)":"01ffc9a7","totalETHStaked()":"61bc37f5","unpause()":"3f4ba83a","userStakes(address)":"8da7ad23"}}}}}