{
  "_format": "hh-sol-artifact-1",
  "contractName": "DANKFairLaunch",
  "sourceName": "contracts/DANKFairLaunch.sol",
  "abi": [
    {
      "inputs": [
        {
          "internalType": "address",
          "name": "_dankToken",
          "type": "address"
        },
        {
          "internalType": "address",
          "name": "_feeCollector",
          "type": "address"
        }
      ],
      "stateMutability": "nonpayable",
      "type": "constructor"
    },
    {
      "inputs": [],
      "name": "AccessControlBadConfirmation",
      "type": "error"
    },
    {
      "inputs": [
        {
          "internalType": "address",
          "name": "account",
          "type": "address"
        },
        {
          "internalType": "bytes32",
          "name": "neededRole",
          "type": "bytes32"
        }
      ],
      "name": "AccessControlUnauthorizedAccount",
      "type": "error"
    },
    {
      "inputs": [
        {
          "internalType": "string",
          "name": "reason",
          "type": "string"
        }
      ],
      "name": "ClaimError",
      "type": "error"
    },
    {
      "inputs": [],
      "name": "EnforcedPause",
      "type": "error"
    },
    {
      "inputs": [],
      "name": "ExpectedPause",
      "type": "error"
    },
    {
      "inputs": [
        {
          "internalType": "address",
          "name": "provided",
          "type": "address"
        }
      ],
      "name": "InvalidAddress",
      "type": "error"
    },
    {
      "inputs": [
        {
          "internalType": "uint256",
          "name": "provided",
          "type": "uint256"
        },
        {
          "internalType": "uint256",
          "name": "required",
          "type": "uint256"
        }
      ],
      "name": "InvalidAmount",
      "type": "error"
    },
    {
      "inputs": [
        {
          "internalType": "string",
          "name": "reason",
          "type": "string"
        }
      ],
      "name": "InvalidState",
      "type": "error"
    },
    {
      "inputs": [],
      "name": "ReentrancyGuardReentrantCall",
      "type": "error"
    },
    {
      "inputs": [
        {
          "internalType": "string",
          "name": "reason",
          "type": "string"
        }
      ],
      "name": "StakingError",
      "type": "error"
    },
    {
      "inputs": [
        {
          "internalType": "string",
          "name": "reason",
          "type": "string"
        }
      ],
      "name": "TransferFailed",
      "type": "error"
    },
    {
      "inputs": [
        {
          "internalType": "address",
          "name": "caller",
          "type": "address"
        },
        {
          "internalType": "string",
          "name": "reason",
          "type": "string"
        }
      ],
      "name": "Unauthorized",
      "type": "error"
    },
    {
      "anonymous": false,
      "inputs": [
        {
          "indexed": true,
          "internalType": "address",
          "name": "user",
          "type": "address"
        },
        {
          "indexed": false,
          "internalType": "uint256",
          "name": "amount",
          "type": "uint256"
        },
        {
          "indexed": false,
          "internalType": "uint256",
          "name": "timestamp",
          "type": "uint256"
        }
      ],
      "name": "EmergencyWithdraw",
      "type": "event"
    },
    {
      "anonymous": false,
      "inputs": [
        {
          "indexed": false,
          "internalType": "address",
          "name": "account",
          "type": "address"
        }
      ],
      "name": "Paused",
      "type": "event"
    },
    {
      "anonymous": false,
      "inputs": [
        {
          "indexed": false,
          "internalType": "uint256",
          "name": "startTime",
          "type": "uint256"
        },
        {
          "indexed": false,
          "internalType": "uint256",
          "name": "endTime",
          "type": "uint256"
        },
        {
          "indexed": false,
          "internalType": "uint256",
          "name": "timestamp",
          "type": "uint256"
        }
      ],
      "name": "PoolInitialized",
      "type": "event"
    },
    {
      "anonymous": false,
      "inputs": [
        {
          "indexed": true,
          "internalType": "address",
          "name": "admin",
          "type": "address"
        },
        {
          "indexed": false,
          "internalType": "uint256",
          "name": "timestamp",
          "type": "uint256"
        }
      ],
      "name": "PoolPaused",
      "type": "event"
    },
    {
      "anonymous": false,
      "inputs": [
        {
          "indexed": true,
          "internalType": "address",
          "name": "admin",
          "type": "address"
        },
        {
          "indexed": false,
          "internalType": "uint256",
          "name": "timestamp",
          "type": "uint256"
        }
      ],
      "name": "PoolUnpaused",
      "type": "event"
    },
    {
      "anonymous": false,
      "inputs": [
        {
          "indexed": true,
          "internalType": "bytes32",
          "name": "role",
          "type": "bytes32"
        },
        {
          "indexed": true,
          "internalType": "bytes32",
          "name": "previousAdminRole",
          "type": "bytes32"
        },
        {
          "indexed": true,
          "internalType": "bytes32",
          "name": "newAdminRole",
          "type": "bytes32"
        }
      ],
      "name": "RoleAdminChanged",
      "type": "event"
    },
    {
      "anonymous": false,
      "inputs": [
        {
          "indexed": true,
          "internalType": "bytes32",
          "name": "role",
          "type": "bytes32"
        },
        {
          "indexed": true,
          "internalType": "address",
          "name": "account",
          "type": "address"
        },
        {
          "indexed": true,
          "internalType": "address",
          "name": "sender",
          "type": "address"
        }
      ],
      "name": "RoleGranted",
      "type": "event"
    },
    {
      "anonymous": false,
      "inputs": [
        {
          "indexed": true,
          "internalType": "bytes32",
          "name": "role",
          "type": "bytes32"
        },
        {
          "indexed": true,
          "internalType": "address",
          "name": "account",
          "type": "address"
        },
        {
          "indexed": true,
          "internalType": "address",
          "name": "sender",
          "type": "address"
        }
      ],
      "name": "RoleRevoked",
      "type": "event"
    },
    {
      "anonymous": false,
      "inputs": [
        {
          "indexed": true,
          "internalType": "address",
          "name": "user",
          "type": "address"
        },
        {
          "indexed": false,
          "internalType": "uint256",
          "name": "amount",
          "type": "uint256"
        },
        {
          "indexed": false,
          "internalType": "uint256",
          "name": "timestamp",
          "type": "uint256"
        }
      ],
      "name": "Staked",
      "type": "event"
    },
    {
      "anonymous": false,
      "inputs": [
        {
          "indexed": true,
          "internalType": "address",
          "name": "token",
          "type": "address"
        },
        {
          "indexed": false,
          "internalType": "uint256",
          "name": "amount",
          "type": "uint256"
        },
        {
          "indexed": false,
          "internalType": "uint256",
          "name": "timestamp",
          "type": "uint256"
        }
      ],
      "name": "TokensRecovered",
      "type": "event"
    },
    {
      "anonymous": false,
      "inputs": [
        {
          "indexed": false,
          "internalType": "address",
          "name": "account",
          "type": "address"
        }
      ],
      "name": "Unpaused",
      "type": "event"
    },
    {
      "anonymous": false,
      "inputs": [
        {
          "indexed": true,
          "internalType": "address",
          "name": "user",
          "type": "address"
        },
        {
          "indexed": false,
          "internalType": "uint256",
          "name": "ethAmount",
          "type": "uint256"
        },
        {
          "indexed": false,
          "internalType": "uint256",
          "name": "dankAmount",
          "type": "uint256"
        },
        {
          "indexed": false,
          "internalType": "uint256",
          "name": "timestamp",
          "type": "uint256"
        }
      ],
      "name": "Withdrawn",
      "type": "event"
    },
    {
      "inputs": [],
      "name": "ADMIN_ROLE",
      "outputs": [
        {
          "internalType": "bytes32",
          "name": "",
          "type": "bytes32"
        }
      ],
      "stateMutability": "view",
      "type": "function"
    },
    {
      "inputs": [],
      "name": "DEFAULT_ADMIN_ROLE",
      "outputs": [
        {
          "internalType": "bytes32",
          "name": "",
          "type": "bytes32"
        }
      ],
      "stateMutability": "view",
      "type": "function"
    },
    {
      "inputs": [],
      "name": "DURATION",
      "outputs": [
        {
          "internalType": "uint256",
          "name": "",
          "type": "uint256"
        }
      ],
      "stateMutability": "view",
      "type": "function"
    },
    {
      "inputs": [],
      "name": "END_BUFFER",
      "outputs": [
        {
          "internalType": "uint256",
          "name": "",
          "type": "uint256"
        }
      ],
      "stateMutability": "view",
      "type": "function"
    },
    {
      "inputs": [],
      "name": "FEE_PERCENTAGE",
      "outputs": [
        {
          "internalType": "uint256",
          "name": "",
          "type": "uint256"
        }
      ],
      "stateMutability": "view",
      "type": "function"
    },
    {
      "inputs": [],
      "name": "MAX_ETH_PER_WALLET",
      "outputs": [
        {
          "internalType": "uint256",
          "name": "",
          "type": "uint256"
        }
      ],
      "stateMutability": "view",
      "type": "function"
    },
    {
      "inputs": [],
      "name": "MIN_ALLOCATION",
      "outputs": [
        {
          "internalType": "uint256",
          "name": "",
          "type": "uint256"
        }
      ],
      "stateMutability": "view",
      "type": "function"
    },
    {
      "inputs": [],
      "name": "MIN_ETH_STAKE",
      "outputs": [
        {
          "internalType": "uint256",
          "name": "",
          "type": "uint256"
        }
      ],
      "stateMutability": "view",
      "type": "function"
    },
    {
      "inputs": [],
      "name": "PAUSER_ROLE",
      "outputs": [
        {
          "internalType": "bytes32",
          "name": "",
          "type": "bytes32"
        }
      ],
      "stateMutability": "view",
      "type": "function"
    },
    {
      "inputs": [],
      "name": "STAKE_COOLDOWN",
      "outputs": [
        {
          "internalType": "uint256",
          "name": "",
          "type": "uint256"
        }
      ],
      "stateMutability": "view",
      "type": "function"
    },
    {
      "inputs": [],
      "name": "TOTAL_REWARDS",
      "outputs": [
        {
          "internalType": "uint256",
          "name": "",
          "type": "uint256"
        }
      ],
      "stateMutability": "view",
      "type": "function"
    },
    {
      "inputs": [
        {
          "internalType": "address",
          "name": "user",
          "type": "address"
        }
      ],
      "name": "calculateTokenAllocation",
      "outputs": [
        {
          "internalType": "uint256",
          "name": "",
          "type": "uint256"
        }
      ],
      "stateMutability": "view",
      "type": "function"
    },
    {
      "inputs": [],
      "name": "claimTokens",
      "outputs": [],
      "stateMutability": "nonpayable",
      "type": "function"
    },
    {
      "inputs": [],
      "name": "dankToken",
      "outputs": [
        {
          "internalType": "contract IERC20",
          "name": "",
          "type": "address"
        }
      ],
      "stateMutability": "view",
      "type": "function"
    },
    {
      "inputs": [],
      "name": "emergencyWithdraw",
      "outputs": [],
      "stateMutability": "nonpayable",
      "type": "function"
    },
    {
      "inputs": [],
      "name": "endTime",
      "outputs": [
        {
          "internalType": "uint256",
          "name": "",
          "type": "uint256"
        }
      ],
      "stateMutability": "view",
      "type": "function"
    },
    {
      "inputs": [],
      "name": "feeCollector",
      "outputs": [
        {
          "internalType": "address",
          "name": "",
          "type": "address"
        }
      ],
      "stateMutability": "view",
      "type": "function"
    },
    {
      "inputs": [
        {
          "internalType": "address",
          "name": "user",
          "type": "address"
        }
      ],
      "name": "getClaimableAmounts",
      "outputs": [
        {
          "internalType": "uint256",
          "name": "tokenAmount",
          "type": "uint256"
        },
        {
          "internalType": "uint256",
          "name": "ethAmount",
          "type": "uint256"
        },
        {
          "internalType": "uint256",
          "name": "feeAmount",
          "type": "uint256"
        }
      ],
      "stateMutability": "view",
      "type": "function"
    },
    {
      "inputs": [
        {
          "internalType": "bytes32",
          "name": "role",
          "type": "bytes32"
        }
      ],
      "name": "getRoleAdmin",
      "outputs": [
        {
          "internalType": "bytes32",
          "name": "",
          "type": "bytes32"
        }
      ],
      "stateMutability": "view",
      "type": "function"
    },
    {
      "inputs": [
        {
          "internalType": "bytes32",
          "name": "role",
          "type": "bytes32"
        },
        {
          "internalType": "address",
          "name": "account",
          "type": "address"
        }
      ],
      "name": "grantRole",
      "outputs": [],
      "stateMutability": "nonpayable",
      "type": "function"
    },
    {
      "inputs": [
        {
          "internalType": "address",
          "name": "",
          "type": "address"
        }
      ],
      "name": "hasClaimed",
      "outputs": [
        {
          "internalType": "bool",
          "name": "",
          "type": "bool"
        }
      ],
      "stateMutability": "view",
      "type": "function"
    },
    {
      "inputs": [
        {
          "internalType": "bytes32",
          "name": "role",
          "type": "bytes32"
        },
        {
          "internalType": "address",
          "name": "account",
          "type": "address"
        }
      ],
      "name": "hasRole",
      "outputs": [
        {
          "internalType": "bool",
          "name": "",
          "type": "bool"
        }
      ],
      "stateMutability": "view",
      "type": "function"
    },
    {
      "inputs": [
        {
          "internalType": "address",
          "name": "",
          "type": "address"
        }
      ],
      "name": "hasStaked",
      "outputs": [
        {
          "internalType": "bool",
          "name": "",
          "type": "bool"
        }
      ],
      "stateMutability": "view",
      "type": "function"
    },
    {
      "inputs": [],
      "name": "initializePool",
      "outputs": [],
      "stateMutability": "nonpayable",
      "type": "function"
    },
    {
      "inputs": [],
      "name": "initialized",
      "outputs": [
        {
          "internalType": "bool",
          "name": "",
          "type": "bool"
        }
      ],
      "stateMutability": "view",
      "type": "function"
    },
    {
      "inputs": [
        {
          "internalType": "address",
          "name": "",
          "type": "address"
        }
      ],
      "name": "lastStakeTime",
      "outputs": [
        {
          "internalType": "uint256",
          "name": "",
          "type": "uint256"
        }
      ],
      "stateMutability": "view",
      "type": "function"
    },
    {
      "inputs": [],
      "name": "pause",
      "outputs": [],
      "stateMutability": "nonpayable",
      "type": "function"
    },
    {
      "inputs": [],
      "name": "paused",
      "outputs": [
        {
          "internalType": "bool",
          "name": "",
          "type": "bool"
        }
      ],
      "stateMutability": "view",
      "type": "function"
    },
    {
      "inputs": [
        {
          "internalType": "address",
          "name": "token",
          "type": "address"
        },
        {
          "internalType": "uint256",
          "name": "amount",
          "type": "uint256"
        }
      ],
      "name": "recoverTokens",
      "outputs": [],
      "stateMutability": "nonpayable",
      "type": "function"
    },
    {
      "inputs": [
        {
          "internalType": "bytes32",
          "name": "role",
          "type": "bytes32"
        },
        {
          "internalType": "address",
          "name": "callerConfirmation",
          "type": "address"
        }
      ],
      "name": "renounceRole",
      "outputs": [],
      "stateMutability": "nonpayable",
      "type": "function"
    },
    {
      "inputs": [
        {
          "internalType": "bytes32",
          "name": "role",
          "type": "bytes32"
        },
        {
          "internalType": "address",
          "name": "account",
          "type": "address"
        }
      ],
      "name": "revokeRole",
      "outputs": [],
      "stateMutability": "nonpayable",
      "type": "function"
    },
    {
      "inputs": [],
      "name": "stake",
      "outputs": [],
      "stateMutability": "payable",
      "type": "function"
    },
    {
      "inputs": [],
      "name": "startTime",
      "outputs": [
        {
          "internalType": "uint256",
          "name": "",
          "type": "uint256"
        }
      ],
      "stateMutability": "view",
      "type": "function"
    },
    {
      "inputs": [
        {
          "internalType": "bytes4",
          "name": "interfaceId",
          "type": "bytes4"
        }
      ],
      "name": "supportsInterface",
      "outputs": [
        {
          "internalType": "bool",
          "name": "",
          "type": "bool"
        }
      ],
      "stateMutability": "view",
      "type": "function"
    },
    {
      "inputs": [],
      "name": "totalETHStaked",
      "outputs": [
        {
          "internalType": "uint256",
          "name": "",
          "type": "uint256"
        }
      ],
      "stateMutability": "view",
      "type": "function"
    },
    {
      "inputs": [],
      "name": "unpause",
      "outputs": [],
      "stateMutability": "nonpayable",
      "type": "function"
    },
    {
      "inputs": [
        {
          "internalType": "address",
          "name": "",
          "type": "address"
        }
      ],
      "name": "userStakes",
      "outputs": [
        {
          "internalType": "uint256",
          "name": "",
          "type": "uint256"
        }
      ],
      "stateMutability": "view",
      "type": "function"
    }
  ],
  "bytecode": "0x60c060405234801561001057600080fd5b50604051611e4c380380611e4c83398101604081905261002f916101d1565b60016000556002805460ff191690556001600160a01b03821661007557604051634726455360e11b81526001600160a01b03831660048201526024015b60405180910390fd5b6001600160a01b0381166100a757604051634726455360e11b81526001600160a01b038216600482015260240161006c565b6100b2600033610120565b506100dd7fa49807205ce4d355092ef5a8a18f56e8913cf4a201fbe287825b095693c2177533610120565b506101087f65d7a28e3265b37a6474929f336521b332c1681b933f6cb9f3376673440d862a33610120565b506001600160a01b039182166080521660a052610204565b60008281526001602090815260408083206001600160a01b038516845290915281205460ff166101ab5760008381526001602081815260408084206001600160a01b0387168086529252808420805460ff19169093179092559051339286917f2f8788117e7eff1d82e926ec794901d17c78024a50270940304540a733656f0d9190a45060016101af565b5060005b92915050565b80516001600160a01b03811681146101cc57600080fd5b919050565b600080604083850312156101e457600080fd5b6101ed836101b5565b91506101fb602084016101b5565b90509250929050565b60805160a051611c0061024c6000396000818161059a01526110fc01526000818161067101528181610755015281816109a50152818161100f015261125b0152611c006000f3fe6080604052600436106102195760003560e01c806373b2e80e1161012357806391d14854116100ab578063d62a853a1161006f578063d62a853a14610624578063d6e903f41461065f578063db2e21bc14610693578063e5486bda146106a8578063e63ab1e9146106be57600080fd5b806391d1485414610553578063a217fddf14610573578063c415b95c14610588578063c93c8f34146105d4578063d547741f1461060457600080fd5b80637ee75ca0116100f25780637ee75ca0146104ca5780638456cb59146104e057806387ac67c1146104f55780638da7ad2314610510578063919b000b1461053d57600080fd5b806373b2e80e1461042357806375b238fc1461045357806378e97925146104875780637bb1ca191461049d57600080fd5b80632f2ff15d116101a65780633a4b66f1116101755780633a4b66f1146103c35780633f4ba83a146103cb57806348c54b9d146103e05780635c975abb146103f557806361bc37f51461040d57600080fd5b80632f2ff15d1461034d5780633197cbb61461036d57806336568abe1461038357806336febc03146103a357600080fd5b8063158ef93e116101ed578063158ef93e146102ba5780631be05289146102d4578063248a9ca3146102eb578063250e6de01461031c57806329db87e71461033157600080fd5b80620b46f81461021e57806301ffc9a714610247578063069c9fae1461027757806309cf609114610299575b600080fd5b34801561022a57600080fd5b506102346101f481565b6040519081526020015b60405180910390f35b34801561025357600080fd5b50610267610262366004611a27565b6106f2565b604051901515815260200161023e565b34801561028357600080fd5b50610297610292366004611a74565b610729565b005b3480156102a557600080fd5b506102346c0153d4a729495daf1a2480000081565b3480156102c657600080fd5b506006546102679060ff1681565b3480156102e057600080fd5b506102346201518081565b3480156102f757600080fd5b50610234610306366004611a9e565b6000908152600160208190526040909120015490565b34801561032857600080fd5b5061029761090d565b34801561033d57600080fd5b506102346706f05b59d3b2000081565b34801561035957600080fd5b50610297610368366004611ab7565b610ad3565b34801561037957600080fd5b5061023460045481565b34801561038f57600080fd5b5061029761039e366004611ab7565b610aff565b3480156103af57600080fd5b506102346103be366004611ae3565b610b37565b610297610c4b565b3480156103d757600080fd5b50610297610eba565b3480156103ec57600080fd5b50610297610f25565b34801561040157600080fd5b5060025460ff16610267565b34801561041957600080fd5b5061023460055481565b34801561042f57600080fd5b5061026761043e366004611ae3565b60096020526000908152604090205460ff1681565b34801561045f57600080fd5b506102347fa49807205ce4d355092ef5a8a18f56e8913cf4a201fbe287825b095693c2177581565b34801561049357600080fd5b5061023460035481565b3480156104a957600080fd5b506102346104b8366004611ae3565b600a6020526000908152604090205481565b3480156104d657600080fd5b50610234610e1081565b3480156104ec57600080fd5b50610297611367565b34801561050157600080fd5b50610234662386f26fc1000081565b34801561051c57600080fd5b5061023461052b366004611ae3565b60076020526000908152604090205481565b34801561054957600080fd5b5061023461012c81565b34801561055f57600080fd5b5061026761056e366004611ab7565b6113cb565b34801561057f57600080fd5b50610234600081565b34801561059457600080fd5b506105bc7f000000000000000000000000000000000000000000000000000000000000000081565b6040516001600160a01b03909116815260200161023e565b3480156105e057600080fd5b506102676105ef366004611ae3565b60086020526000908152604090205460ff1681565b34801561061057600080fd5b5061029761061f366004611ab7565b6113f6565b34801561063057600080fd5b5061064461063f366004611ae3565b61141c565b6040805193845260208401929092529082015260600161023e565b34801561066b57600080fd5b506105bc7f000000000000000000000000000000000000000000000000000000000000000081565b34801561069f57600080fd5b506102976114bd565b3480156106b457600080fd5b506102346103e881565b3480156106ca57600080fd5b506102347f65d7a28e3265b37a6474929f336521b332c1681b933f6cb9f3376673440d862a81565b60006001600160e01b03198216637965db0b60e01b148061072357506301ffc9a760e01b6001600160e01b03198316145b92915050565b7fa49807205ce4d355092ef5a8a18f56e8913cf4a201fbe287825b095693c217756107538161166e565b7f00000000000000000000000000000000000000000000000000000000000000006001600160a01b0316836001600160a01b03161480156107a3575060045461079f9062278d00611b14565b4211155b1561080f57604051631186d0b760e31b815260206004820152603060248201527f43616e6e6f742077697468647261772044414e4b20746f6b656e73206475726960448201526f1b99c81858dd1a5d99481c195c9a5bd960821b60648201526084015b60405180910390fd5b60405163a9059cbb60e01b8152336004820152602481018390526001600160a01b0384169063a9059cbb906044016020604051808303816000875af115801561085c573d6000803e3d6000fd5b505050506040513d601f19601f820116820180604052508101906108809190611b27565b6108c5576040516312dfddb360e01b8152602060048201526015602482015274151bdad95b881c9958dbdd995c9e4819985a5b1959605a1b6044820152606401610806565b604080518381524260208201526001600160a01b038516917f1b47a558841d5932eac8d9b54d715979f08192e29aa6f5acefdfbedd4286fbe7910160405180910390a2505050565b7fa49807205ce4d355092ef5a8a18f56e8913cf4a201fbe287825b095693c217756109378161166e565b60065460ff161561098157604051631186d0b760e31b8152602060048201526013602482015272105b1c9958591e481a5b9a5d1a585b1a5e9959606a1b6044820152606401610806565b6040516370a0823160e01b81523060048201526c0153d4a729495daf1a24800000907f00000000000000000000000000000000000000000000000000000000000000006001600160a01b0316906370a0823190602401602060405180830381865afa1580156109f4573d6000803e3d6000fd5b505050506040513d601f19601f82011682018060405250810190610a189190611b49565b1015610a5d57604051631186d0b760e31b8152602060048201526013602482015272496e73756666696369656e7420746f6b656e7360681b6044820152606401610806565b426003819055610a71906201518090611b14565b60048190556006805460ff191660011790556003546040517f2432ac7d1a69edf7a84a587b57cbfba673d3513d85558394c1c81d327923a68992610ac8929142909283526020830191909152604082015260600190565b60405180910390a150565b60008281526001602081905260409091200154610aef8161166e565b610af9838361167b565b50505050565b6001600160a01b0381163314610b285760405163334bd91960e11b815260040160405180910390fd5b610b3282826116f4565b505050565b600060055460001480610b6057506001600160a01b038216600090815260076020526040902054155b15610b6d57506000919050565b6005546001600160a01b038316600090815260076020526040812054909190610bab670de0b6b3a76400006c0153d4a729495daf1a24800000611b62565b610bb59190611b62565b610bbf9190611b8f565b90506000610bd5670de0b6b3a764000083611b8f565b90506000610beb670de0b6b3a764000084611ba3565b90508015610c30576005546001600160a01b038616600090815260076020526040902054610c199083611b62565b610c239190611b8f565b610c2d9083611b14565b91505b6103e88210610c3f5781610c42565b60005b95945050505050565b610c53611761565b610c5b61178b565b60065460ff16610ca557604051631186d0b760e31b8152602060048201526014602482015273141bdbdb081b9bdd081a5b9a5d1a585b1a5e995960621b6044820152606401610806565b600354421015610ce657604051631186d0b760e31b815260206004820152600b60248201526a139bdd081cdd185c9d195960aa1b6044820152606401610806565b61012c600454610cf69190611bb7565b421115610d3957604051631186d0b760e31b815260206004820152601060248201526f151bdbc818db1bdcd9481d1bc8195b9960821b6044820152606401610806565b662386f26fc10000341015610d70576040516307c83fcf60e41b8152346004820152662386f26fc100006024820152604401610806565b336000908152600a6020526040902054610d8d90610e1090611b14565b421015610dcf57604051634565dab160e11b815260206004820152600f60248201526e436f6f6c646f776e2061637469766560881b6044820152606401610806565b33600090815260076020526040812054610dea903490611b14565b90506706f05b59d3b20000811115610e26576040516307c83fcf60e41b8152600481018290526706f05b59d3b200006024820152604401610806565b33600090815260076020526040812082905560058054349290610e4a908490611b14565b9091555050336000818152600860209081526040808320805460ff19166001179055600a82529182902042908190558251348152918201527f1449c6dd7851abc30abf37f57715f492010519147cc2652fbc38202c18a6ee90910160405180910390a250610eb86001600055565b565b7f65d7a28e3265b37a6474929f336521b332c1681b933f6cb9f3376673440d862a610ee48161166e565b610eec6117af565b60405142815233907f7218b4a8a456456c2cf5dbcd9202a02880a891c6f9dfafd90e7be5531523a031906020015b60405180910390a250565b610f2d611761565b6004544211610f7f57604051631186d0b760e31b815260206004820152601860248201527f46616972206c61756e6368207374696c6c2061637469766500000000000000006044820152606401610806565b610f8833611801565b6000610f9333610b37565b90506103e8811015610fdf57604051633fbb0b0160e01b8152602060048201526014602482015273105b1b1bd8d85d1a5bdb881d1bdbc81cdb585b1b60621b6044820152606401610806565b33600090815260076020526040908190205490516370a0823160e01b815230600482015282906001600160a01b037f000000000000000000000000000000000000000000000000000000000000000016906370a0823190602401602060405180830381865afa158015611056573d6000803e3d6000fd5b505050506040513d601f19601f8201168201806040525081019061107a9190611b49565b10156110bf57604051633fbb0b0160e01b8152602060048201526013602482015272496e73756666696369656e7420746f6b656e7360681b6044820152606401610806565b336000908152600960205260408120805460ff191660011790556110e8826101f4612710611912565b905060006110f68284611bb7565b905060007f00000000000000000000000000000000000000000000000000000000000000006001600160a01b03168360405160006040518083038185875af1925050503d8060008114611165576040519150601f19603f3d011682016040523d82523d6000602084013e61116a565b606091505b50509050806111b2576040516312dfddb360e01b8152602060048201526013602482015272119959481d1c985b9cd9995c8819985a5b1959606a1b6044820152606401610806565b604051600090339084908381818185875af1925050503d80600081146111f4576040519150601f19603f3d011682016040523d82523d6000602084013e6111f9565b606091505b505090508061123f576040516312dfddb360e01b8152602060048201526011602482015270115512081c995d1d5c9b8819985a5b1959607a1b6044820152606401610806565b60405163a9059cbb60e01b8152336004820152602481018790527f00000000000000000000000000000000000000000000000000000000000000006001600160a01b03169063a9059cbb906044016020604051808303816000875af11580156112ac573d6000803e3d6000fd5b505050506040513d601f19601f820116820180604052508101906112d09190611b27565b611315576040516312dfddb360e01b8152602060048201526015602482015274151bdad95b881d1c985b9cd9995c8819985a5b1959605a1b6044820152606401610806565b60408051848152602081018890524281830152905133917f75e161b3e824b114fc1a33274bd7091918dd4e639cede50b78b15a4eea956a21919081900360600190a2505050505050610eb86001600055565b7f65d7a28e3265b37a6474929f336521b332c1681b933f6cb9f3376673440d862a6113918161166e565b61139961198a565b60405142815233907fdeccd871bd16197ce3d021a73302372354d5cd2b5c3f57065638c772bf5a7c2890602001610f1a565b60009182526001602090815260408084206001600160a01b0393909316845291905290205460ff1690565b600082815260016020819052604090912001546114128161166e565b610af983836116f4565b6001600160a01b0381166000908152600860205260408120548190819060ff16158061146057506001600160a01b03841660009081526009602052604090205460ff165b15611473575060009150819050806114b6565b6001600160a01b03841660009081526007602052604090205461149b816101f4612710611912565b91506114a78282611bb7565b92506114b285610b37565b9350505b9193909250565b6114c5611761565b60025460ff1661151857604051631186d0b760e31b815260206004820152601760248201527f436f6e7472616374206d757374206265207061757365640000000000000000006044820152606401610806565b61152133611801565b336000908152600760205260409020544781111561158257604051631186d0b760e31b815260206004820152601d60248201527f496e73756666696369656e7420636f6e74726163742062616c616e63650000006044820152606401610806565b33600081815260096020526040808220805460ff191660011790555190919083908381818185875af1925050503d80600081146115db576040519150601f19603f3d011682016040523d82523d6000602084013e6115e0565b606091505b5050905080611628576040516312dfddb360e01b8152602060048201526013602482015272115512081d1c985b9cd9995c8819985a5b1959606a1b6044820152606401610806565b6040805183815242602082015233917fbb757047c2b5f3974fe26b7c10f732e7bce710b0952a71082702781e62ae0595910160405180910390a25050610eb86001600055565b61167881336119c7565b50565b600061168783836113cb565b6116ec5760008381526001602081815260408084206001600160a01b0387168086529252808420805460ff19169093179092559051339286917f2f8788117e7eff1d82e926ec794901d17c78024a50270940304540a733656f0d9190a4506001610723565b506000610723565b600061170083836113cb565b156116ec5760008381526001602090815260408083206001600160a01b0386168085529252808320805460ff1916905551339286917ff6391f5c32d9c69d2a47ea670b442974b53935d1edc7fd64eb21e047a839171b9190a4506001610723565b60026000540361178457604051633ee5aeb560e01b815260040160405180910390fd5b6002600055565b60025460ff1615610eb85760405163d93c066560e01b815260040160405180910390fd5b6117b7611a04565b6002805460ff191690557f5db9ee0a495bf2e6ff9c91a7834c1ba4fdd244a5e8aa4e537bd38aeae4b073aa335b6040516001600160a01b03909116815260200160405180910390a1565b6001600160a01b03811660009081526008602052604090205460ff1661185b57604051634565dab160e11b815260206004820152600e60248201526d139bc81cdd185ad948199bdd5b9960921b6044820152606401610806565b6001600160a01b03811660009081526009602052604090205460ff16156118b757604051633fbb0b0160e01b815260206004820152600f60248201526e105b1c9958591e4818db185a5b5959608a1b6044820152606401610806565b6001600160a01b038116600090815260076020526040812054900361167857604051634565dab160e11b815260206004820152601060248201526f4e6f7468696e6720746f20636c61696d60801b6044820152606401610806565b60008160000361193f576040516307c83fcf60e41b81526004810183905260016024820152604401610806565b6000611953670de0b6b3a764000086611b62565b90506000836119628684611b62565b61196c9190611b8f565b9050611980670de0b6b3a764000082611b8f565b9695505050505050565b61199261178b565b6002805460ff191660011790557f62e78cea01bee320cd4e420270b5ea74000d11b0c9f74754ebdbfc544b05a2586117e43390565b6119d182826113cb565b611a005760405163e2517d3f60e01b81526001600160a01b038216600482015260248101839052604401610806565b5050565b60025460ff16610eb857604051638dfc202b60e01b815260040160405180910390fd5b600060208284031215611a3957600080fd5b81356001600160e01b031981168114611a5157600080fd5b9392505050565b80356001600160a01b0381168114611a6f57600080fd5b919050565b60008060408385031215611a8757600080fd5b611a9083611a58565b946020939093013593505050565b600060208284031215611ab057600080fd5b5035919050565b60008060408385031215611aca57600080fd5b82359150611ada60208401611a58565b90509250929050565b600060208284031215611af557600080fd5b611a5182611a58565b634e487b7160e01b600052601160045260246000fd5b8082018082111561072357610723611afe565b600060208284031215611b3957600080fd5b81518015158114611a5157600080fd5b600060208284031215611b5b57600080fd5b5051919050565b808202811582820484141761072357610723611afe565b634e487b7160e01b600052601260045260246000fd5b600082611b9e57611b9e611b79565b500490565b600082611bb257611bb2611b79565b500690565b8181038181111561072357610723611afe56fea2646970667358221220ed3a7c4348d007e265954709303c147633d646fcc5fb4b92995d7fbc026d0b3d64736f6c634300081b0033",
  "linkReferences": {},
  "deployedLinkReferences": {}
}