{
  "_format": "hh-sol-artifact-1",
  "contractName": "DankToken",
  "sourceName": "contracts/DankToken.sol",
  "abi": [
    {
      "inputs": [
        {
          "internalType": "string",
          "name": "_name",
          "type": "string"
        },
        {
          "internalType": "string",
          "name": "_symbol",
          "type": "string"
        },
        {
          "internalType": "address",
          "name": "_initialHolder",
          "type": "address"
        },
        {
          "internalType": "uint256",
          "name": "_maxSupply",
          "type": "uint256"
        }
      ],
      "stateMutability": "nonpayable",
      "type": "constructor"
    },
    {
      "inputs": [],
      "name": "CheckpointUnorderedInsertion",
      "type": "error"
    },
    {
      "inputs": [],
      "name": "ECDSAInvalidSignature",
      "type": "error"
    },
    {
      "inputs": [
        {
          "internalType": "uint256",
          "name": "length",
          "type": "uint256"
        }
      ],
      "name": "ECDSAInvalidSignatureLength",
      "type": "error"
    },
    {
      "inputs": [
        {
          "internalType": "bytes32",
          "name": "s",
          "type": "bytes32"
        }
      ],
      "name": "ECDSAInvalidSignatureS",
      "type": "error"
    },
    {
      "inputs": [
        {
          "internalType": "uint256",
          "name": "increasedSupply",
          "type": "uint256"
        },
        {
          "internalType": "uint256",
          "name": "cap",
          "type": "uint256"
        }
      ],
      "name": "ERC20ExceededSafeSupply",
      "type": "error"
    },
    {
      "inputs": [
        {
          "internalType": "address",
          "name": "spender",
          "type": "address"
        },
        {
          "internalType": "uint256",
          "name": "allowance",
          "type": "uint256"
        },
        {
          "internalType": "uint256",
          "name": "needed",
          "type": "uint256"
        }
      ],
      "name": "ERC20InsufficientAllowance",
      "type": "error"
    },
    {
      "inputs": [
        {
          "internalType": "address",
          "name": "sender",
          "type": "address"
        },
        {
          "internalType": "uint256",
          "name": "balance",
          "type": "uint256"
        },
        {
          "internalType": "uint256",
          "name": "needed",
          "type": "uint256"
        }
      ],
      "name": "ERC20InsufficientBalance",
      "type": "error"
    },
    {
      "inputs": [
        {
          "internalType": "address",
          "name": "approver",
          "type": "address"
        }
      ],
      "name": "ERC20InvalidApprover",
      "type": "error"
    },
    {
      "inputs": [
        {
          "internalType": "address",
          "name": "receiver",
          "type": "address"
        }
      ],
      "name": "ERC20InvalidReceiver",
      "type": "error"
    },
    {
      "inputs": [
        {
          "internalType": "address",
          "name": "sender",
          "type": "address"
        }
      ],
      "name": "ERC20InvalidSender",
      "type": "error"
    },
    {
      "inputs": [
        {
          "internalType": "address",
          "name": "spender",
          "type": "address"
        }
      ],
      "name": "ERC20InvalidSpender",
      "type": "error"
    },
    {
      "inputs": [
        {
          "internalType": "uint256",
          "name": "deadline",
          "type": "uint256"
        }
      ],
      "name": "ERC2612ExpiredSignature",
      "type": "error"
    },
    {
      "inputs": [
        {
          "internalType": "address",
          "name": "signer",
          "type": "address"
        },
        {
          "internalType": "address",
          "name": "owner",
          "type": "address"
        }
      ],
      "name": "ERC2612InvalidSigner",
      "type": "error"
    },
    {
      "inputs": [
        {
          "internalType": "uint256",
          "name": "timepoint",
          "type": "uint256"
        },
        {
          "internalType": "uint48",
          "name": "clock",
          "type": "uint48"
        }
      ],
      "name": "ERC5805FutureLookup",
      "type": "error"
    },
    {
      "inputs": [],
      "name": "ERC6372InconsistentClock",
      "type": "error"
    },
    {
      "inputs": [
        {
          "internalType": "address",
          "name": "account",
          "type": "address"
        },
        {
          "internalType": "uint256",
          "name": "currentNonce",
          "type": "uint256"
        }
      ],
      "name": "InvalidAccountNonce",
      "type": "error"
    },
    {
      "inputs": [],
      "name": "InvalidShortString",
      "type": "error"
    },
    {
      "inputs": [
        {
          "internalType": "uint8",
          "name": "bits",
          "type": "uint8"
        },
        {
          "internalType": "uint256",
          "name": "value",
          "type": "uint256"
        }
      ],
      "name": "SafeCastOverflowedUintDowncast",
      "type": "error"
    },
    {
      "inputs": [
        {
          "internalType": "string",
          "name": "str",
          "type": "string"
        }
      ],
      "name": "StringTooLong",
      "type": "error"
    },
    {
      "inputs": [
        {
          "internalType": "uint256",
          "name": "expiry",
          "type": "uint256"
        }
      ],
      "name": "VotesExpiredSignature",
      "type": "error"
    },
    {
      "anonymous": false,
      "inputs": [
        {
          "indexed": true,
          "internalType": "address",
          "name": "owner",
          "type": "address"
        },
        {
          "indexed": true,
          "internalType": "address",
          "name": "spender",
          "type": "address"
        },
        {
          "indexed": false,
          "internalType": "uint256",
          "name": "value",
          "type": "uint256"
        }
      ],
      "name": "Approval",
      "type": "event"
    },
    {
      "anonymous": false,
      "inputs": [
        {
          "indexed": true,
          "internalType": "address",
          "name": "delegator",
          "type": "address"
        },
        {
          "indexed": true,
          "internalType": "address",
          "name": "fromDelegate",
          "type": "address"
        },
        {
          "indexed": true,
          "internalType": "address",
          "name": "toDelegate",
          "type": "address"
        }
      ],
      "name": "DelegateChanged",
      "type": "event"
    },
    {
      "anonymous": false,
      "inputs": [
        {
          "indexed": true,
          "internalType": "address",
          "name": "delegate",
          "type": "address"
        },
        {
          "indexed": false,
          "internalType": "uint256",
          "name": "previousVotes",
          "type": "uint256"
        },
        {
          "indexed": false,
          "internalType": "uint256",
          "name": "newVotes",
          "type": "uint256"
        }
      ],
      "name": "DelegateVotesChanged",
      "type": "event"
    },
    {
      "anonymous": false,
      "inputs": [],
      "name": "EIP712DomainChanged",
      "type": "event"
    },
    {
      "anonymous": false,
      "inputs": [
        {
          "indexed": false,
          "internalType": "string",
          "name": "name",
          "type": "string"
        },
        {
          "indexed": false,
          "internalType": "string",
          "name": "symbol",
          "type": "string"
        },
        {
          "indexed": false,
          "internalType": "uint256",
          "name": "maxSupply",
          "type": "uint256"
        },
        {
          "indexed": false,
          "internalType": "address",
          "name": "initialHolder",
          "type": "address"
        }
      ],
      "name": "TokenInitialized",
      "type": "event"
    },
    {
      "anonymous": false,
      "inputs": [
        {
          "indexed": true,
          "internalType": "address",
          "name": "from",
          "type": "address"
        },
        {
          "indexed": true,
          "internalType": "address",
          "name": "to",
          "type": "address"
        },
        {
          "indexed": false,
          "internalType": "uint256",
          "name": "value",
          "type": "uint256"
        }
      ],
      "name": "Transfer",
      "type": "event"
    },
    {
      "inputs": [],
      "name": "CLOCK_MODE",
      "outputs": [
        {
          "internalType": "string",
          "name": "",
          "type": "string"
        }
      ],
      "stateMutability": "view",
      "type": "function"
    },
    {
      "inputs": [],
      "name": "DOMAIN_SEPARATOR",
      "outputs": [
        {
          "internalType": "bytes32",
          "name": "",
          "type": "bytes32"
        }
      ],
      "stateMutability": "view",
      "type": "function"
    },
    {
      "inputs": [],
      "name": "MAX_SUPPLY",
      "outputs": [
        {
          "internalType": "uint256",
          "name": "",
          "type": "uint256"
        }
      ],
      "stateMutability": "view",
      "type": "function"
    },
    {
      "inputs": [
        {
          "internalType": "address",
          "name": "owner",
          "type": "address"
        },
        {
          "internalType": "address",
          "name": "spender",
          "type": "address"
        }
      ],
      "name": "allowance",
      "outputs": [
        {
          "internalType": "uint256",
          "name": "",
          "type": "uint256"
        }
      ],
      "stateMutability": "view",
      "type": "function"
    },
    {
      "inputs": [
        {
          "internalType": "address",
          "name": "spender",
          "type": "address"
        },
        {
          "internalType": "uint256",
          "name": "value",
          "type": "uint256"
        }
      ],
      "name": "approve",
      "outputs": [
        {
          "internalType": "bool",
          "name": "",
          "type": "bool"
        }
      ],
      "stateMutability": "nonpayable",
      "type": "function"
    },
    {
      "inputs": [
        {
          "internalType": "address",
          "name": "account",
          "type": "address"
        }
      ],
      "name": "balanceOf",
      "outputs": [
        {
          "internalType": "uint256",
          "name": "",
          "type": "uint256"
        }
      ],
      "stateMutability": "view",
      "type": "function"
    },
    {
      "inputs": [
        {
          "internalType": "address",
          "name": "account",
          "type": "address"
        },
        {
          "internalType": "uint32",
          "name": "pos",
          "type": "uint32"
        }
      ],
      "name": "checkpoints",
      "outputs": [
        {
          "components": [
            {
              "internalType": "uint48",
              "name": "_key",
              "type": "uint48"
            },
            {
              "internalType": "uint208",
              "name": "_value",
              "type": "uint208"
            }
          ],
          "internalType": "struct Checkpoints.Checkpoint208",
          "name": "",
          "type": "tuple"
        }
      ],
      "stateMutability": "view",
      "type": "function"
    },
    {
      "inputs": [],
      "name": "clock",
      "outputs": [
        {
          "internalType": "uint48",
          "name": "",
          "type": "uint48"
        }
      ],
      "stateMutability": "view",
      "type": "function"
    },
    {
      "inputs": [],
      "name": "decimals",
      "outputs": [
        {
          "internalType": "uint8",
          "name": "",
          "type": "uint8"
        }
      ],
      "stateMutability": "view",
      "type": "function"
    },
    {
      "inputs": [
        {
          "internalType": "address",
          "name": "delegatee",
          "type": "address"
        }
      ],
      "name": "delegate",
      "outputs": [],
      "stateMutability": "nonpayable",
      "type": "function"
    },
    {
      "inputs": [
        {
          "internalType": "address",
          "name": "delegatee",
          "type": "address"
        },
        {
          "internalType": "uint256",
          "name": "nonce",
          "type": "uint256"
        },
        {
          "internalType": "uint256",
          "name": "expiry",
          "type": "uint256"
        },
        {
          "internalType": "uint8",
          "name": "v",
          "type": "uint8"
        },
        {
          "internalType": "bytes32",
          "name": "r",
          "type": "bytes32"
        },
        {
          "internalType": "bytes32",
          "name": "s",
          "type": "bytes32"
        }
      ],
      "name": "delegateBySig",
      "outputs": [],
      "stateMutability": "nonpayable",
      "type": "function"
    },
    {
      "inputs": [
        {
          "internalType": "address",
          "name": "account",
          "type": "address"
        }
      ],
      "name": "delegates",
      "outputs": [
        {
          "internalType": "address",
          "name": "",
          "type": "address"
        }
      ],
      "stateMutability": "view",
      "type": "function"
    },
    {
      "inputs": [],
      "name": "eip712Domain",
      "outputs": [
        {
          "internalType": "bytes1",
          "name": "fields",
          "type": "bytes1"
        },
        {
          "internalType": "string",
          "name": "name",
          "type": "string"
        },
        {
          "internalType": "string",
          "name": "version",
          "type": "string"
        },
        {
          "internalType": "uint256",
          "name": "chainId",
          "type": "uint256"
        },
        {
          "internalType": "address",
          "name": "verifyingContract",
          "type": "address"
        },
        {
          "internalType": "bytes32",
          "name": "salt",
          "type": "bytes32"
        },
        {
          "internalType": "uint256[]",
          "name": "extensions",
          "type": "uint256[]"
        }
      ],
      "stateMutability": "view",
      "type": "function"
    },
    {
      "inputs": [
        {
          "internalType": "uint256",
          "name": "timepoint",
          "type": "uint256"
        }
      ],
      "name": "getPastTotalSupply",
      "outputs": [
        {
          "internalType": "uint256",
          "name": "",
          "type": "uint256"
        }
      ],
      "stateMutability": "view",
      "type": "function"
    },
    {
      "inputs": [
        {
          "internalType": "address",
          "name": "account",
          "type": "address"
        },
        {
          "internalType": "uint256",
          "name": "timepoint",
          "type": "uint256"
        }
      ],
      "name": "getPastVotes",
      "outputs": [
        {
          "internalType": "uint256",
          "name": "",
          "type": "uint256"
        }
      ],
      "stateMutability": "view",
      "type": "function"
    },
    {
      "inputs": [
        {
          "internalType": "address",
          "name": "account",
          "type": "address"
        }
      ],
      "name": "getVotes",
      "outputs": [
        {
          "internalType": "uint256",
          "name": "",
          "type": "uint256"
        }
      ],
      "stateMutability": "view",
      "type": "function"
    },
    {
      "inputs": [],
      "name": "name",
      "outputs": [
        {
          "internalType": "string",
          "name": "",
          "type": "string"
        }
      ],
      "stateMutability": "view",
      "type": "function"
    },
    {
      "inputs": [
        {
          "internalType": "address",
          "name": "_owner",
          "type": "address"
        }
      ],
      "name": "nonces",
      "outputs": [
        {
          "internalType": "uint256",
          "name": "",
          "type": "uint256"
        }
      ],
      "stateMutability": "view",
      "type": "function"
    },
    {
      "inputs": [
        {
          "internalType": "address",
          "name": "account",
          "type": "address"
        }
      ],
      "name": "numCheckpoints",
      "outputs": [
        {
          "internalType": "uint32",
          "name": "",
          "type": "uint32"
        }
      ],
      "stateMutability": "view",
      "type": "function"
    },
    {
      "inputs": [
        {
          "internalType": "address",
          "name": "owner",
          "type": "address"
        },
        {
          "internalType": "address",
          "name": "spender",
          "type": "address"
        },
        {
          "internalType": "uint256",
          "name": "value",
          "type": "uint256"
        },
        {
          "internalType": "uint256",
          "name": "deadline",
          "type": "uint256"
        },
        {
          "internalType": "uint8",
          "name": "v",
          "type": "uint8"
        },
        {
          "internalType": "bytes32",
          "name": "r",
          "type": "bytes32"
        },
        {
          "internalType": "bytes32",
          "name": "s",
          "type": "bytes32"
        }
      ],
      "name": "permit",
      "outputs": [],
      "stateMutability": "nonpayable",
      "type": "function"
    },
    {
      "inputs": [],
      "name": "symbol",
      "outputs": [
        {
          "internalType": "string",
          "name": "",
          "type": "string"
        }
      ],
      "stateMutability": "view",
      "type": "function"
    },
    {
      "inputs": [],
      "name": "totalSupply",
      "outputs": [
        {
          "internalType": "uint256",
          "name": "",
          "type": "uint256"
        }
      ],
      "stateMutability": "view",
      "type": "function"
    },
    {
      "inputs": [
        {
          "internalType": "address",
          "name": "to",
          "type": "address"
        },
        {
          "internalType": "uint256",
          "name": "value",
          "type": "uint256"
        }
      ],
      "name": "transfer",
      "outputs": [
        {
          "internalType": "bool",
          "name": "",
          "type": "bool"
        }
      ],
      "stateMutability": "nonpayable",
      "type": "function"
    },
    {
      "inputs": [
        {
          "internalType": "address",
          "name": "from",
          "type": "address"
        },
        {
          "internalType": "address",
          "name": "to",
          "type": "address"
        },
        {
          "internalType": "uint256",
          "name": "value",
          "type": "uint256"
        }
      ],
      "name": "transferFrom",
      "outputs": [
        {
          "internalType": "bool",
          "name": "",
          "type": "bool"
        }
      ],
      "stateMutability": "nonpayable",
      "type": "function"
    }
  ],
  "bytecode": "0x61018060405234801561001157600080fd5b50604051612a82380380612a8283398101604081905261003091610904565b8383828280604051806040016040528060018152602001603160f81b815250858581600390816100609190610a1d565b50600461006d8282610a1d565b5061007d9150839050600561017a565b6101205261008c81600661017a565b61014052815160208084019190912060e052815190820120610100524660a05261011960e05161010051604080517f8b73c3c69bb8fe3d512ecc4cf759cc79239f7b179b0ffacaa9a75d522b39400f60208201529081019290925260608201524660808201523060a082015260009060c00160405160208183030381529060405280519060200120905090565b60805250503060c052506101605250610134905082826101ad565b7f12bdfd2f29cf0194cd626fbd8a4b8fd1de36748d1a1b936eac39fe35845c585a848483856040516101699493929190610b07565b60405180910390a150505050610bff565b60006020835110156101965761018f836101ec565b90506101a7565b816101a18482610a1d565b5060ff90505b92915050565b6001600160a01b0382166101dc5760405163ec442f0560e01b8152600060048201526024015b60405180910390fd5b6101e86000838361022a565b5050565b600080829050601f81511115610217578260405163305a27a960e01b81526004016101d39190610b4e565b805161022282610b61565b179392505050565b61023583838361023a565b505050565b6102458383836102a7565b6001600160a01b03831661029c57600061025e60025490565b9050600061026c6101605190565b90508082111561029957604051630e58ae9360e11b815260048101839052602481018290526044016101d3565b50505b6102358383836103d1565b6001600160a01b0383166102d25780600260008282546102c79190610b9b565b909155506103449050565b6001600160a01b038316600090815260208190526040902054818110156103255760405163391434e360e21b81526001600160a01b038516600482015260248101829052604481018390526064016101d3565b6001600160a01b03841660009081526020819052604090209082900390555b6001600160a01b0382166103605760028054829003905561037f565b6001600160a01b03821660009081526020819052604090208054820190555b816001600160a01b0316836001600160a01b03167fddf252ad1be2c89b69c2b068fc378daa952ba7f163c4a11628f55a4df523b3ef836040516103c491815260200190565b60405180910390a3505050565b6001600160a01b0383166103ff576103fc600a61091b61045a60201b176103f78461046d565b6104a5565b50505b6001600160a01b03821661042857610425600a6109276104db60201b176103f78461046d565b50505b6001600160a01b03838116600090815260086020526040808220548584168352912054610235929182169116836104e7565b60006104668284610bae565b9392505050565b60006001600160d01b038211156104a1576040516306dfcc6560e41b815260d06004820152602481018390526044016101d3565b5090565b6000806104ce6104b361063c565b6104c66104bf8861064b565b868860201c565b879190610695565b915091505b935093915050565b60006104668284610bcd565b816001600160a01b0316836001600160a01b0316141580156105095750600081115b15610235576001600160a01b038316156105a3576001600160a01b03831660009081526009602090815260408220829161055091906104db901b610927176103f78661046d565b6001600160d01b031691506001600160d01b03169150846001600160a01b0316600080516020612a628339815191528383604051610598929190918252602082015260400190565b60405180910390a250505b6001600160a01b03821615610235576001600160a01b0382166000908152600960209081526040822082916105e5919061045a901b61091b176103f78661046d565b6001600160d01b031691506001600160d01b03169150836001600160a01b0316600080516020612a62833981519152838360405161062d929190918252602082015260400190565b60405180910390a25050505050565b60006106466106a3565b905090565b8054600090801561068c5761067383610665600184610bec565b600091825260209091200190565b54660100000000000090046001600160d01b0316610466565b60009392505050565b6000806104ce8585856106ae565b60006106464261080e565b8254600090819080156107b05760006106cc87610665600185610bec565b805490915065ffffffffffff80821691660100000000000090046001600160d01b031690881682111561071257604051632520601d60e01b815260040160405180910390fd5b8765ffffffffffff168265ffffffffffff160361074e57825465ffffffffffff1666010000000000006001600160d01b038916021783556107a2565b6040805180820190915265ffffffffffff808a1682526001600160d01b03808a1660208085019182528d54600181018f5560008f815291909120945191519092166601000000000000029216919091179101555b94508593506104d392505050565b50506040805180820190915265ffffffffffff80851682526001600160d01b0380851660208085019182528854600181018a5560008a81529182209551925190931666010000000000000291909316179201919091559050816104d3565b600065ffffffffffff8211156104a1576040516306dfcc6560e41b815260306004820152602481018390526044016101d3565b634e487b7160e01b600052604160045260246000fd5b60005b8381101561087257818101518382015260200161085a565b50506000910152565b600082601f83011261088c57600080fd5b81516001600160401b038111156108a5576108a5610841565b604051601f8201601f19908116603f011681016001600160401b03811182821017156108d3576108d3610841565b6040528181528382016020018510156108eb57600080fd5b6108fc826020830160208701610857565b949350505050565b6000806000806080858703121561091a57600080fd5b84516001600160401b0381111561093057600080fd5b61093c8782880161087b565b602087015190955090506001600160401b0381111561095a57600080fd5b6109668782880161087b565b604087015190945090506001600160a01b038116811461098557600080fd5b6060959095015193969295505050565b600181811c908216806109a957607f821691505b6020821081036109c957634e487b7160e01b600052602260045260246000fd5b50919050565b601f82111561023557806000526020600020601f840160051c810160208510156109f65750805b601f840160051c820191505b81811015610a165760008155600101610a02565b5050505050565b81516001600160401b03811115610a3657610a36610841565b610a4a81610a448454610995565b846109cf565b6020601f821160018114610a7e5760008315610a665750848201515b600019600385901b1c1916600184901b178455610a16565b600084815260208120601f198516915b82811015610aae5787850151825560209485019460019092019101610a8e565b5084821015610acc5786840151600019600387901b60f8161c191681555b50505050600190811b01905550565b60008151808452610af3816020860160208601610857565b601f01601f19169290920160200192915050565b608081526000610b1a6080830187610adb565b8281036020840152610b2c8187610adb565b604084019590955250506001600160a01b039190911660609091015292915050565b6020815260006104666020830184610adb565b805160208083015191908110156109c95760001960209190910360031b1b16919050565b634e487b7160e01b600052601160045260246000fd5b808201808211156101a7576101a7610b85565b6001600160d01b0381811683821601908111156101a7576101a7610b85565b6001600160d01b0382811682821603908111156101a7576101a7610b85565b818103818111156101a7576101a7610b85565b60805160a05160c05160e05161010051610120516101405161016051611df7610c6b600039600081816101d7015261157101526000610d0d01526000610ce001526000610afc01526000610ad401526000610a2f01526000610a5901526000610a830152611df76000f3fe608060405234801561001057600080fd5b50600436106101585760003560e01c806370a08231116100c35780639ab24eb01161007c5780639ab24eb01461032e578063a9059cbb14610341578063c3cda52014610354578063d505accf14610367578063dd62ed3e1461037a578063f1127ed8146103b357600080fd5b806370a082311461029d5780637ecebe00146102c657806384b0196e146102d95780638e539e8c146102f457806391ddadf41461030757806395d89b411461032657600080fd5b80633644e515116101155780633644e515146101f95780633a46b1a8146102015780634bf5d7e914610214578063587cde1e1461021c5780635c19a95c146102605780636fcfff451461027557600080fd5b806306fdde031461015d578063095ea7b31461017b57806318160ddd1461019e57806323b872dd146101b0578063313ce567146101c357806332cb6b0c146101d2575b600080fd5b6101656103f2565b6040516101729190611a00565b60405180910390f35b61018e610189366004611a2f565b610484565b6040519015158152602001610172565b6002545b604051908152602001610172565b61018e6101be366004611a59565b61049e565b60405160128152602001610172565b6101a27f000000000000000000000000000000000000000000000000000000000000000081565b6101a26104c2565b6101a261020f366004611a2f565b6104d1565b610165610557565b61024861022a366004611a96565b6001600160a01b039081166000908152600860205260409020541690565b6040516001600160a01b039091168152602001610172565b61027361026e366004611a96565b6105c0565b005b610288610283366004611a96565b6105cf565b60405163ffffffff9091168152602001610172565b6101a26102ab366004611a96565b6001600160a01b031660009081526020819052604090205490565b6101a26102d4366004611a96565b6105da565b6102e16105f8565b6040516101729796959493929190611ab1565b6101a2610302366004611b49565b61063e565b61030f6106a8565b60405165ffffffffffff9091168152602001610172565b6101656106b2565b6101a261033c366004611a96565b6106c1565b61018e61034f366004611a2f565b6106f1565b610273610362366004611b73565b6106ff565b610273610375366004611bcb565b6107bc565b6101a2610388366004611c36565b6001600160a01b03918216600090815260016020908152604080832093909416825291909152205490565b6103c66103c1366004611c69565b6108f6565b60408051825165ffffffffffff1681526020928301516001600160d01b03169281019290925201610172565b60606003805461040190611ca9565b80601f016020809104026020016040519081016040528092919081815260200182805461042d90611ca9565b801561047a5780601f1061044f5761010080835404028352916020019161047a565b820191906000526020600020905b81548152906001019060200180831161045d57829003601f168201915b5050505050905090565b600033610492818585610933565b60019150505b92915050565b6000336104ac858285610945565b6104b78585856109c3565b506001949350505050565b60006104cc610a22565b905090565b6000806104dc6106a8565b90508065ffffffffffff16831061051c57604051637669fc0f60e11b81526004810184905265ffffffffffff821660248201526044015b60405180910390fd5b61054661052884610b4d565b6001600160a01b038616600090815260096020526040902090610b84565b6001600160d01b0316949350505050565b6060610561610c3a565b65ffffffffffff166105716106a8565b65ffffffffffff1614610597576040516301bfc1c560e61b815260040160405180910390fd5b5060408051808201909152600e81526d06d6f64653d74696d657374616d760941b602082015290565b336105cb8183610c45565b5050565b600061049882610cb7565b6001600160a01b038116600090815260076020526040812054610498565b60006060806000806000606061060c610cd9565b610614610d06565b60408051600080825260208201909252600f60f81b9b939a50919850469750309650945092509050565b6000806106496106a8565b90508065ffffffffffff16831061068457604051637669fc0f60e11b81526004810184905265ffffffffffff82166024820152604401610513565b61069861069084610b4d565b600a90610b84565b6001600160d01b03169392505050565b60006104cc610c3a565b60606004805461040190611ca9565b6001600160a01b03811660009081526009602052604081206106e290610d33565b6001600160d01b031692915050565b6000336104928185856109c3565b8342111561072357604051632341d78760e11b815260048101859052602401610513565b604080517fe48329057bfd03d55e49b547132e39cffd9c1820ad7b9d4c5307691425d15adf60208201526001600160a01b03881691810191909152606081018690526080810185905260009061079d906107959060a00160405160208183030381529060405280519060200120610d6c565b858585610d99565b90506107a98187610dc7565b6107b38188610c45565b50505050505050565b834211156107e05760405163313c898160e11b815260048101859052602401610513565b60007f6e71edae12b1b97f4d1f60370fef10105fa2faae0126114a169c64845d6126c988888861082d8c6001600160a01b0316600090815260076020526040902080546001810190915590565b6040805160208101969096526001600160a01b0394851690860152929091166060840152608083015260a082015260c0810186905260e001604051602081830303815290604052805190602001209050600061088882610d6c565b9050600061089882878787610d99565b9050896001600160a01b0316816001600160a01b0316146108df576040516325c0072360e11b81526001600160a01b0380831660048301528b166024820152604401610513565b6108ea8a8a8a610933565b50505050505050505050565b60408051808201909152600080825260208201526109148383610e1a565b9392505050565b60006109148284611cf9565b60006109148284611d18565b6109408383836001610e50565b505050565b6001600160a01b0383811660009081526001602090815260408083209386168352929052205460001981146109bd57818110156109ae57604051637dc7a0d960e11b81526001600160a01b03841660048201526024810182905260448101839052606401610513565b6109bd84848484036000610e50565b50505050565b6001600160a01b0383166109ed57604051634b637e8f60e11b815260006004820152602401610513565b6001600160a01b038216610a175760405163ec442f0560e01b815260006004820152602401610513565b610940838383610f25565b6000306001600160a01b037f000000000000000000000000000000000000000000000000000000000000000016148015610a7b57507f000000000000000000000000000000000000000000000000000000000000000046145b15610aa557507f000000000000000000000000000000000000000000000000000000000000000090565b6104cc604080517f8b73c3c69bb8fe3d512ecc4cf759cc79239f7b179b0ffacaa9a75d522b39400f60208201527f0000000000000000000000000000000000000000000000000000000000000000918101919091527f000000000000000000000000000000000000000000000000000000000000000060608201524660808201523060a082015260009060c00160405160208183030381529060405280519060200120905090565b600065ffffffffffff821115610b80576040516306dfcc6560e41b81526030600482015260248101839052604401610513565b5090565b815460009081816005811115610be3576000610b9f84610f30565b610ba99085611d37565b60008881526020902090915081015465ffffffffffff9081169087161015610bd357809150610be1565b610bde816001611d4a565b92505b505b6000610bf187878585611089565b90508015610c2c57610c1687610c08600184611d37565b600091825260209091200190565b54600160301b90046001600160d01b0316610c2f565b60005b979650505050505050565b60006104cc42610b4d565b6001600160a01b0382811660008181526008602052604080822080548686166001600160a01b0319821681179092559151919094169392849290917f3134e8a2e6d97e929a7e54011ea5485d7d196dd5f0ba4d4ef95803e8e3fc257f9190a46109408183610cb2866110eb565b611109565b6001600160a01b03811660009081526009602052604081205461049890611275565b60606104cc7f000000000000000000000000000000000000000000000000000000000000000060056112a6565b60606104cc7f000000000000000000000000000000000000000000000000000000000000000060066112a6565b80546000908015610d6357610d4d83610c08600184611d37565b54600160301b90046001600160d01b0316610914565b60009392505050565b6000610498610d79610a22565b8360405161190160f01b8152600281019290925260228201526042902090565b600080600080610dab88888888611351565b925092509250610dbb8282611420565b50909695505050505050565b6001600160a01b0382166000908152600760205260409020805460018101909155818114610940576040516301d4b62360e61b81526001600160a01b038416600482015260248101829052604401610513565b60408051808201909152600080825260208201526001600160a01b038316600090815260096020526040902061091490836114d9565b6001600160a01b038416610e7a5760405163e602df0560e01b815260006004820152602401610513565b6001600160a01b038316610ea457604051634a1406b160e11b815260006004820152602401610513565b6001600160a01b03808516600090815260016020908152604080832093871683529290522082905580156109bd57826001600160a01b0316846001600160a01b03167f8c5be1e5ebec7d5bd14f71427d1e84f3dd0314c0f7b2291e5b200ac8c7c3b92584604051610f1791815260200190565b60405180910390a350505050565b610940838383611549565b600060018211610f3e575090565b816001600160801b8210610f575760809190911c9060401b5b680100000000000000008210610f725760409190911c9060201b5b6401000000008210610f895760209190911c9060101b5b620100008210610f9e5760109190911c9060081b5b6101008210610fb25760089190911c9060041b5b60108210610fc55760049190911c9060021b5b60048210610fd15760011b5b600302600190811c90818581610fe957610fe9611d5d565b048201901c9050600181858161100157611001611d5d565b048201901c9050600181858161101957611019611d5d565b048201901c9050600181858161103157611031611d5d565b048201901c9050600181858161104957611049611d5d565b048201901c9050600181858161106157611061611d5d565b048201901c905061108081858161107a5761107a611d5d565b04821190565b90039392505050565b60005b818310156110e35760006110a084846115c9565b60008781526020902090915065ffffffffffff86169082015465ffffffffffff1611156110cf578092506110dd565b6110da816001611d4a565b93505b5061108c565b509392505050565b6001600160a01b038116600090815260208190526040812054610498565b816001600160a01b0316836001600160a01b03161415801561112b5750600081115b15610940576001600160a01b038316156111d3576001600160a01b0383166000908152600960205260408120819061116e90610927611169866115e4565b611618565b6001600160d01b031691506001600160d01b03169150846001600160a01b03167fdec2bacdd2f05b59de34da9b523dff8be42e5e38e818c82fdb0bae774387a72483836040516111c8929190918252602082015260400190565b60405180910390a250505b6001600160a01b03821615610940576001600160a01b0382166000908152600960205260408120819061120c9061091b611169866115e4565b6001600160d01b031691506001600160d01b03169150836001600160a01b03167fdec2bacdd2f05b59de34da9b523dff8be42e5e38e818c82fdb0bae774387a7248383604051611266929190918252602082015260400190565b60405180910390a25050505050565b600063ffffffff821115610b80576040516306dfcc6560e41b81526020600482015260248101839052604401610513565b606060ff83146112c0576112b983611651565b9050610498565b8180546112cc90611ca9565b80601f01602080910402602001604051908101604052809291908181526020018280546112f890611ca9565b80156113455780601f1061131a57610100808354040283529160200191611345565b820191906000526020600020905b81548152906001019060200180831161132857829003601f168201915b50505050509050610498565b600080807f7fffffffffffffffffffffffffffffff5d576e7357a4501ddfe92f46681b20a084111561138c5750600091506003905082611416565b604080516000808252602082018084528a905260ff891692820192909252606081018790526080810186905260019060a0016020604051602081039080840390855afa1580156113e0573d6000803e3d6000fd5b5050604051601f1901519150506001600160a01b03811661140c57506000925060019150829050611416565b9250600091508190505b9450945094915050565b600082600381111561143457611434611d73565b0361143d575050565b600182600381111561145157611451611d73565b0361146f5760405163f645eedf60e01b815260040160405180910390fd5b600282600381111561148357611483611d73565b036114a45760405163fce698f760e01b815260048101829052602401610513565b60038260038111156114b8576114b8611d73565b036105cb576040516335e2f38360e21b815260048101829052602401610513565b6040805180820190915260008082526020820152826000018263ffffffff168154811061150857611508611d89565b60009182526020918290206040805180820190915291015465ffffffffffff81168252600160301b90046001600160d01b0316918101919091529392505050565b611554838383611690565b6001600160a01b0383166115be57600061156d60025490565b90507f0000000000000000000000000000000000000000000000000000000000000000808211156115bb57604051630e58ae9360e11b81526004810183905260248101829052604401610513565b50505b6109408383836117ba565b60006115d86002848418611d9f565b61091490848416611d4a565b60006001600160d01b03821115610b80576040516306dfcc6560e41b815260d0600482015260248101839052604401610513565b6000806116446116266106a8565b61163c61163288610d33565b868863ffffffff16565b879190611830565b915091505b935093915050565b6060600061165e8361183e565b604080516020808252818301909252919250600091906020820181803683375050509182525060208101929092525090565b6001600160a01b0383166116bb5780600260008282546116b09190611d4a565b9091555061172d9050565b6001600160a01b0383166000908152602081905260409020548181101561170e5760405163391434e360e21b81526001600160a01b03851660048201526024810182905260448101839052606401610513565b6001600160a01b03841660009081526020819052604090209082900390555b6001600160a01b03821661174957600280548290039055611768565b6001600160a01b03821660009081526020819052604090208054820190555b816001600160a01b0316836001600160a01b03167fddf252ad1be2c89b69c2b068fc378daa952ba7f163c4a11628f55a4df523b3ef836040516117ad91815260200190565b60405180910390a3505050565b6001600160a01b0383166117dc576117d9600a61091b611169846115e4565b50505b6001600160a01b0382166117fe576117fb600a610927611169846115e4565b50505b6001600160a01b0383811660009081526008602052604080822054858416835291205461094092918216911683611109565b600080611644858585611866565b600060ff8216601f81111561049857604051632cd44ac360e21b815260040160405180910390fd5b82546000908190801561195f57600061188487610c08600185611d37565b805490915065ffffffffffff80821691600160301b90046001600160d01b03169088168211156118c757604051632520601d60e01b815260040160405180910390fd5b8765ffffffffffff168265ffffffffffff160361190057825465ffffffffffff16600160301b6001600160d01b03891602178355611951565b6040805180820190915265ffffffffffff808a1682526001600160d01b03808a1660208085019182528d54600181018f5560008f81529190912094519151909216600160301b029216919091179101555b945085935061164992505050565b50506040805180820190915265ffffffffffff80851682526001600160d01b0380851660208085019182528854600181018a5560008a815291822095519251909316600160301b029190931617920191909155905081611649565b6000815180845260005b818110156119e0576020818501810151868301820152016119c4565b506000602082860101526020601f19601f83011685010191505092915050565b60208152600061091460208301846119ba565b80356001600160a01b0381168114611a2a57600080fd5b919050565b60008060408385031215611a4257600080fd5b611a4b83611a13565b946020939093013593505050565b600080600060608486031215611a6e57600080fd5b611a7784611a13565b9250611a8560208501611a13565b929592945050506040919091013590565b600060208284031215611aa857600080fd5b61091482611a13565b60ff60f81b8816815260e060208201526000611ad060e08301896119ba565b8281036040840152611ae281896119ba565b606084018890526001600160a01b038716608085015260a0840186905283810360c08501528451808252602080870193509091019060005b81811015611b38578351835260209384019390920191600101611b1a565b50909b9a5050505050505050505050565b600060208284031215611b5b57600080fd5b5035919050565b803560ff81168114611a2a57600080fd5b60008060008060008060c08789031215611b8c57600080fd5b611b9587611a13565b95506020870135945060408701359350611bb160608801611b62565b9598949750929560808101359460a0909101359350915050565b600080600080600080600060e0888a031215611be657600080fd5b611bef88611a13565b9650611bfd60208901611a13565b95506040880135945060608801359350611c1960808901611b62565b9699959850939692959460a0840135945060c09093013592915050565b60008060408385031215611c4957600080fd5b611c5283611a13565b9150611c6060208401611a13565b90509250929050565b60008060408385031215611c7c57600080fd5b611c8583611a13565b9150602083013563ffffffff81168114611c9e57600080fd5b809150509250929050565b600181811c90821680611cbd57607f821691505b602082108103611cdd57634e487b7160e01b600052602260045260246000fd5b50919050565b634e487b7160e01b600052601160045260246000fd5b6001600160d01b03818116838216019081111561049857610498611ce3565b6001600160d01b03828116828216039081111561049857610498611ce3565b8181038181111561049857610498611ce3565b8082018082111561049857610498611ce3565b634e487b7160e01b600052601260045260246000fd5b634e487b7160e01b600052602160045260246000fd5b634e487b7160e01b600052603260045260246000fd5b600082611dbc57634e487b7160e01b600052601260045260246000fd5b50049056fea26469706673582212203f0cdc1694a58543d297c1c61abc1133d08b484ff94771b54f7741a33d5c1ce664736f6c634300081b0033dec2bacdd2f05b59de34da9b523dff8be42e5e38e818c82fdb0bae774387a724",
  "linkReferences": {},
  "deployedLinkReferences": {}
}